{
	"Demo.sol": {
		"Demo": {
			"abi": [
				{
					"anonymous": false,
					"inputs": [
						{
							"indexed": true,
							"internalType": "uint256",
							"name": "recordId",
							"type": "uint256"
						},
						{
							"indexed": true,
							"internalType": "address",
							"name": "owner",
							"type": "address"
						},
						{
							"indexed": false,
							"internalType": "bytes",
							"name": "payload",
							"type": "bytes"
						},
						{
							"indexed": false,
							"internalType": "bytes32",
							"name": "payloadHash",
							"type": "bytes32"
						},
						{
							"indexed": false,
							"internalType": "bytes32",
							"name": "pqcProofHash",
							"type": "bytes32"
						},
						{
							"indexed": false,
							"internalType": "uint256",
							"name": "appNonce",
							"type": "uint256"
						},
						{
							"indexed": false,
							"internalType": "uint256",
							"name": "timestamp",
							"type": "uint256"
						},
						{
							"indexed": false,
							"internalType": "bool",
							"name": "encrypted",
							"type": "bool"
						},
						{
							"indexed": false,
							"internalType": "string",
							"name": "mode",
							"type": "string"
						},
						{
							"indexed": false,
							"internalType": "string",
							"name": "ipfsCid",
							"type": "string"
						},
						{
							"indexed": false,
							"internalType": "string",
							"name": "algorithm",
							"type": "string"
						}
					],
					"name": "RecordStored",
					"type": "event"
				},
				{
					"inputs": [
						{
							"internalType": "uint256",
							"name": "recordId",
							"type": "uint256"
						}
					],
					"name": "getRecord",
					"outputs": [
						{
							"internalType": "uint256",
							"name": "",
							"type": "uint256"
						},
						{
							"internalType": "address",
							"name": "",
							"type": "address"
						},
						{
							"internalType": "bytes",
							"name": "",
							"type": "bytes"
						},
						{
							"internalType": "bytes32",
							"name": "",
							"type": "bytes32"
						},
						{
							"internalType": "bytes32",
							"name": "",
							"type": "bytes32"
						},
						{
							"internalType": "uint256",
							"name": "",
							"type": "uint256"
						},
						{
							"internalType": "uint256",
							"name": "",
							"type": "uint256"
						},
						{
							"internalType": "bool",
							"name": "",
							"type": "bool"
						},
						{
							"internalType": "string",
							"name": "",
							"type": "string"
						},
						{
							"internalType": "string",
							"name": "",
							"type": "string"
						},
						{
							"internalType": "string",
							"name": "",
							"type": "string"
						}
					],
					"stateMutability": "view",
					"type": "function"
				},
				{
					"inputs": [
						{
							"internalType": "address",
							"name": "",
							"type": "address"
						}
					],
					"name": "lastNonceBySender",
					"outputs": [
						{
							"internalType": "uint256",
							"name": "",
							"type": "uint256"
						}
					],
					"stateMutability": "view",
					"type": "function"
				},
				{
					"inputs": [],
					"name": "lastRecordId",
					"outputs": [
						{
							"internalType": "uint256",
							"name": "",
							"type": "uint256"
						}
					],
					"stateMutability": "view",
					"type": "function"
				},
				{
					"inputs": [
						{
							"internalType": "bytes",
							"name": "payload",
							"type": "bytes"
						},
						{
							"internalType": "bytes32",
							"name": "payloadHash",
							"type": "bytes32"
						},
						{
							"internalType": "bytes32",
							"name": "pqcProofHash",
							"type": "bytes32"
						},
						{
							"internalType": "uint256",
							"name": "appNonce",
							"type": "uint256"
						},
						{
							"internalType": "uint256",
							"name": "timestamp",
							"type": "uint256"
						},
						{
							"internalType": "bool",
							"name": "encrypted",
							"type": "bool"
						},
						{
							"internalType": "string",
							"name": "mode",
							"type": "string"
						},
						{
							"internalType": "string",
							"name": "ipfsCid",
							"type": "string"
						},
						{
							"internalType": "string",
							"name": "algorithm",
							"type": "string"
						}
					],
					"name": "storeRecord",
					"outputs": [],
					"stateMutability": "nonpayable",
					"type": "function"
				}
			],
			"devdoc": {
				"kind": "dev",
				"methods": {},
				"version": 1
			},
			"evm": {
				"assembly": "    /* \"Demo.sol\":58:2899  contract Demo {... */\n  mstore(0x40, 0x80)\n  callvalue\n  dup1\n  iszero\n  tag_1\n  jumpi\n  revert(0x00, 0x00)\ntag_1:\n  pop\n  dataSize(sub_0)\n  dup1\n  dataOffset(sub_0)\n  0x00\n  codecopy\n  0x00\n  return\nstop\n\nsub_0: assembly {\n        /* \"Demo.sol\":58:2899  contract Demo {... */\n      mstore(0x40, 0x80)\n      callvalue\n      dup1\n      iszero\n      tag_1\n      jumpi\n      revert(0x00, 0x00)\n    tag_1:\n      pop\n      jumpi(tag_2, lt(calldatasize, 0x04))\n      shr(0xe0, calldataload(0x00))\n      dup1\n      0x03e9e609\n      eq\n      tag_3\n      jumpi\n      dup1\n      0x27505bd2\n      eq\n      tag_4\n      jumpi\n      dup1\n      0x55438bf6\n      eq\n      tag_5\n      jumpi\n      dup1\n      0xfea68189\n      eq\n      tag_6\n      jumpi\n    tag_2:\n      revert(0x00, 0x00)\n        /* \"Demo.sol\":2131:2897  function getRecord(... */\n    tag_3:\n      tag_7\n      0x04\n      dup1\n      calldatasize\n      sub\n      dup2\n      add\n      swap1\n      tag_8\n      swap2\n      swap1\n      tag_9\n      jump\t// in\n    tag_8:\n      tag_10\n      jump\t// in\n    tag_7:\n      mload(0x40)\n      tag_11\n      swap12\n      swap11\n      swap10\n      swap9\n      swap8\n      swap7\n      swap6\n      swap5\n      swap4\n      swap3\n      swap2\n      swap1\n      tag_12\n      jump\t// in\n    tag_11:\n      mload(0x40)\n      dup1\n      swap2\n      sub\n      swap1\n      return\n        /* \"Demo.sol\":851:2125  function storeRecord(... */\n    tag_4:\n      tag_13\n      0x04\n      dup1\n      calldatasize\n      sub\n      dup2\n      add\n      swap1\n      tag_14\n      swap2\n      swap1\n      tag_15\n      jump\t// in\n    tag_14:\n      tag_16\n      jump\t// in\n    tag_13:\n      stop\n        /* \"Demo.sol\":466:518  mapping(address => uint256) public lastNonceBySender */\n    tag_5:\n      tag_17\n      0x04\n      dup1\n      calldatasize\n      sub\n      dup2\n      add\n      swap1\n      tag_18\n      swap2\n      swap1\n      tag_19\n      jump\t// in\n    tag_18:\n      tag_20\n      jump\t// in\n    tag_17:\n      mload(0x40)\n      tag_21\n      swap2\n      swap1\n      tag_22\n      jump\t// in\n    tag_21:\n      mload(0x40)\n      dup1\n      swap2\n      sub\n      swap1\n      return\n        /* \"Demo.sol\":384:411  uint256 public lastRecordId */\n    tag_6:\n      tag_23\n      tag_24\n      jump\t// in\n    tag_23:\n      mload(0x40)\n      tag_25\n      swap2\n      swap1\n      tag_22\n      jump\t// in\n    tag_25:\n      mload(0x40)\n      dup1\n      swap2\n      sub\n      swap1\n      return\n        /* \"Demo.sol\":2131:2897  function getRecord(... */\n    tag_10:\n        /* \"Demo.sol\":2240:2247  uint256 */\n      0x00\n        /* \"Demo.sol\":2261:2268  address */\n      0x00\n        /* \"Demo.sol\":2282:2294  bytes memory */\n      0x60\n        /* \"Demo.sol\":2308:2315  bytes32 */\n      0x00\n        /* \"Demo.sol\":2329:2336  bytes32 */\n      0x00\n        /* \"Demo.sol\":2350:2357  uint256 */\n      0x00\n        /* \"Demo.sol\":2371:2378  uint256 */\n      0x00\n        /* \"Demo.sol\":2392:2396  bool */\n      0x00\n        /* \"Demo.sol\":2410:2423  string memory */\n      0x60\n        /* \"Demo.sol\":2437:2450  string memory */\n      dup1\n        /* \"Demo.sol\":2464:2477  string memory */\n      0x60\n        /* \"Demo.sol\":2502:2523  Record storage record */\n      0x00\n        /* \"Demo.sol\":2526:2533  records */\n      0x01\n        /* \"Demo.sol\":2526:2543  records[recordId] */\n      0x00\n        /* \"Demo.sol\":2534:2542  recordId */\n      dup15\n        /* \"Demo.sol\":2526:2543  records[recordId] */\n      dup2\n      mstore\n      0x20\n      add\n      swap1\n      dup2\n      mstore\n      0x20\n      add\n      0x00\n      keccak256\n        /* \"Demo.sol\":2502:2543  Record storage record = records[recordId] */\n      swap1\n      pop\n        /* \"Demo.sol\":2574:2580  record */\n      dup1\n        /* \"Demo.sol\":2574:2589  record.recordId */\n      0x00\n      add\n      sload\n        /* \"Demo.sol\":2603:2609  record */\n      dup2\n        /* \"Demo.sol\":2603:2615  record.owner */\n      0x01\n      add\n      0x00\n      swap1\n      sload\n      swap1\n      0x0100\n      exp\n      swap1\n      div\n      0xffffffffffffffffffffffffffffffffffffffff\n      and\n        /* \"Demo.sol\":2629:2635  record */\n      dup3\n        /* \"Demo.sol\":2629:2643  record.payload */\n      0x02\n      add\n        /* \"Demo.sol\":2657:2663  record */\n      dup4\n        /* \"Demo.sol\":2657:2675  record.payloadHash */\n      0x03\n      add\n      sload\n        /* \"Demo.sol\":2689:2695  record */\n      dup5\n        /* \"Demo.sol\":2689:2708  record.pqcProofHash */\n      0x04\n      add\n      sload\n        /* \"Demo.sol\":2722:2728  record */\n      dup6\n        /* \"Demo.sol\":2722:2737  record.appNonce */\n      0x05\n      add\n      sload\n        /* \"Demo.sol\":2751:2757  record */\n      dup7\n        /* \"Demo.sol\":2751:2767  record.timestamp */\n      0x06\n      add\n      sload\n        /* \"Demo.sol\":2781:2787  record */\n      dup8\n        /* \"Demo.sol\":2781:2797  record.encrypted */\n      0x07\n      add\n      0x00\n      swap1\n      sload\n      swap1\n      0x0100\n      exp\n      swap1\n      div\n      0xff\n      and\n        /* \"Demo.sol\":2811:2817  record */\n      dup9\n        /* \"Demo.sol\":2811:2822  record.mode */\n      0x08\n      add\n        /* \"Demo.sol\":2836:2842  record */\n      dup10\n        /* \"Demo.sol\":2836:2850  record.ipfsCid */\n      0x09\n      add\n        /* \"Demo.sol\":2864:2870  record */\n      dup11\n        /* \"Demo.sol\":2864:2880  record.algorithm */\n      0x0a\n      add\n        /* \"Demo.sol\":2553:2890  return (... */\n      dup9\n      dup1\n      sload\n      tag_27\n      swap1\n      tag_28\n      jump\t// in\n    tag_27:\n      dup1\n      0x1f\n      add\n      0x20\n      dup1\n      swap2\n      div\n      mul\n      0x20\n      add\n      mload(0x40)\n      swap1\n      dup2\n      add\n      0x40\n      mstore\n      dup1\n      swap3\n      swap2\n      swap1\n      dup2\n      dup2\n      mstore\n      0x20\n      add\n      dup3\n      dup1\n      sload\n      tag_29\n      swap1\n      tag_28\n      jump\t// in\n    tag_29:\n      dup1\n      iszero\n      tag_30\n      jumpi\n      dup1\n      0x1f\n      lt\n      tag_31\n      jumpi\n      0x0100\n      dup1\n      dup4\n      sload\n      div\n      mul\n      dup4\n      mstore\n      swap2\n      0x20\n      add\n      swap2\n      jump(tag_30)\n    tag_31:\n      dup3\n      add\n      swap2\n      swap1\n      0x00\n      mstore\n      keccak256(0x00, 0x20)\n      swap1\n    tag_32:\n      dup2\n      sload\n      dup2\n      mstore\n      swap1\n      0x01\n      add\n      swap1\n      0x20\n      add\n      dup1\n      dup4\n      gt\n      tag_32\n      jumpi\n      dup3\n      swap1\n      sub\n      0x1f\n      and\n      dup3\n      add\n      swap2\n    tag_30:\n      pop\n      pop\n      pop\n      pop\n      pop\n      swap9\n      pop\n      dup3\n      dup1\n      sload\n      tag_33\n      swap1\n      tag_28\n      jump\t// in\n    tag_33:\n      dup1\n      0x1f\n      add\n      0x20\n      dup1\n      swap2\n      div\n      mul\n      0x20\n      add\n      mload(0x40)\n      swap1\n      dup2\n      add\n      0x40\n      mstore\n      dup1\n      swap3\n      swap2\n      swap1\n      dup2\n      dup2\n      mstore\n      0x20\n      add\n      dup3\n      dup1\n      sload\n      tag_34\n      swap1\n      tag_28\n      jump\t// in\n    tag_34:\n      dup1\n      iszero\n      tag_35\n      jumpi\n      dup1\n      0x1f\n      lt\n      tag_36\n      jumpi\n      0x0100\n      dup1\n      dup4\n      sload\n      div\n      mul\n      dup4\n      mstore\n      swap2\n      0x20\n      add\n      swap2\n      jump(tag_35)\n    tag_36:\n      dup3\n      add\n      swap2\n      swap1\n      0x00\n      mstore\n      keccak256(0x00, 0x20)\n      swap1\n    tag_37:\n      dup2\n      sload\n      dup2\n      mstore\n      swap1\n      0x01\n      add\n      swap1\n      0x20\n      add\n      dup1\n      dup4\n      gt\n      tag_37\n      jumpi\n      dup3\n      swap1\n      sub\n      0x1f\n      and\n      dup3\n      add\n      swap2\n    tag_35:\n      pop\n      pop\n      pop\n      pop\n      pop\n      swap3\n      pop\n      dup2\n      dup1\n      sload\n      tag_38\n      swap1\n      tag_28\n      jump\t// in\n    tag_38:\n      dup1\n      0x1f\n      add\n      0x20\n      dup1\n      swap2\n      div\n      mul\n      0x20\n      add\n      mload(0x40)\n      swap1\n      dup2\n      add\n      0x40\n      mstore\n      dup1\n      swap3\n      swap2\n      swap1\n      dup2\n      dup2\n      mstore\n      0x20\n      add\n      dup3\n      dup1\n      sload\n      tag_39\n      swap1\n      tag_28\n      jump\t// in\n    tag_39:\n      dup1\n      iszero\n      tag_40\n      jumpi\n      dup1\n      0x1f\n      lt\n      tag_41\n      jumpi\n      0x0100\n      dup1\n      dup4\n      sload\n      div\n      mul\n      dup4\n      mstore\n      swap2\n      0x20\n      add\n      swap2\n      jump(tag_40)\n    tag_41:\n      dup3\n      add\n      swap2\n      swap1\n      0x00\n      mstore\n      keccak256(0x00, 0x20)\n      swap1\n    tag_42:\n      dup2\n      sload\n      dup2\n      mstore\n      swap1\n      0x01\n      add\n      swap1\n      0x20\n      add\n      dup1\n      dup4\n      gt\n      tag_42\n      jumpi\n      dup3\n      swap1\n      sub\n      0x1f\n      and\n      dup3\n      add\n      swap2\n    tag_40:\n      pop\n      pop\n      pop\n      pop\n      pop\n      swap2\n      pop\n      dup1\n      dup1\n      sload\n      tag_43\n      swap1\n      tag_28\n      jump\t// in\n    tag_43:\n      dup1\n      0x1f\n      add\n      0x20\n      dup1\n      swap2\n      div\n      mul\n      0x20\n      add\n      mload(0x40)\n      swap1\n      dup2\n      add\n      0x40\n      mstore\n      dup1\n      swap3\n      swap2\n      swap1\n      dup2\n      dup2\n      mstore\n      0x20\n      add\n      dup3\n      dup1\n      sload\n      tag_44\n      swap1\n      tag_28\n      jump\t// in\n    tag_44:\n      dup1\n      iszero\n      tag_45\n      jumpi\n      dup1\n      0x1f\n      lt\n      tag_46\n      jumpi\n      0x0100\n      dup1\n      dup4\n      sload\n      div\n      mul\n      dup4\n      mstore\n      swap2\n      0x20\n      add\n      swap2\n      jump(tag_45)\n    tag_46:\n      dup3\n      add\n      swap2\n      swap1\n      0x00\n      mstore\n      keccak256(0x00, 0x20)\n      swap1\n    tag_47:\n      dup2\n      sload\n      dup2\n      mstore\n      swap1\n      0x01\n      add\n      swap1\n      0x20\n      add\n      dup1\n      dup4\n      gt\n      tag_47\n      jumpi\n      dup3\n      swap1\n      sub\n      0x1f\n      and\n      dup3\n      add\n      swap2\n    tag_45:\n      pop\n      pop\n      pop\n      pop\n      pop\n      swap1\n      pop\n      swap12\n      pop\n      swap12\n      pop\n      swap12\n      pop\n      swap12\n      pop\n      swap12\n      pop\n      swap12\n      pop\n      swap12\n      pop\n      swap12\n      pop\n      swap12\n      pop\n      swap12\n      pop\n      swap12\n      pop\n      pop\n        /* \"Demo.sol\":2131:2897  function getRecord(... */\n      swap2\n      swap4\n      swap6\n      swap8\n      swap10\n      swap12\n      swap1\n      swap3\n      swap5\n      swap7\n      swap9\n      swap11\n      pop\n      jump\t// out\n        /* \"Demo.sol\":851:2125  function storeRecord(... */\n    tag_16:\n        /* \"Demo.sol\":1172:1189  lastNonceBySender */\n      0x02\n        /* \"Demo.sol\":1172:1201  lastNonceBySender[msg.sender] */\n      0x00\n        /* \"Demo.sol\":1190:1200  msg.sender */\n      caller\n        /* \"Demo.sol\":1172:1201  lastNonceBySender[msg.sender] */\n      0xffffffffffffffffffffffffffffffffffffffff\n      and\n      0xffffffffffffffffffffffffffffffffffffffff\n      and\n      dup2\n      mstore\n      0x20\n      add\n      swap1\n      dup2\n      mstore\n      0x20\n      add\n      0x00\n      keccak256\n      sload\n        /* \"Demo.sol\":1161:1169  appNonce */\n      dup7\n        /* \"Demo.sol\":1161:1201  appNonce > lastNonceBySender[msg.sender] */\n      gt\n        /* \"Demo.sol\":1153:1217  require(appNonce > lastNonceBySender[msg.sender], \"stale nonce\") */\n      tag_49\n      jumpi\n      mload(0x40)\n      0x08c379a000000000000000000000000000000000000000000000000000000000\n      dup2\n      mstore\n      0x04\n      add\n      tag_50\n      swap1\n      tag_51\n      jump\t// in\n    tag_50:\n      mload(0x40)\n      dup1\n      swap2\n      sub\n      swap1\n      revert\n    tag_49:\n        /* \"Demo.sol\":1257:1268  payloadHash */\n      dup8\n        /* \"Demo.sol\":1245:1252  payload */\n      dup10\n        /* \"Demo.sol\":1235:1253  keccak256(payload) */\n      dup1\n      mload\n      swap1\n      0x20\n      add\n      keccak256\n        /* \"Demo.sol\":1235:1268  keccak256(payload) == payloadHash */\n      eq\n        /* \"Demo.sol\":1227:1294  require(keccak256(payload) == payloadHash, \"payload hash mismatch\") */\n      tag_52\n      jumpi\n      mload(0x40)\n      0x08c379a000000000000000000000000000000000000000000000000000000000\n      dup2\n      mstore\n      0x04\n      add\n      tag_53\n      swap1\n      tag_54\n      jump\t// in\n    tag_53:\n      mload(0x40)\n      dup1\n      swap2\n      sub\n      swap1\n      revert\n    tag_52:\n        /* \"Demo.sol\":1305:1321  uint256 recordId */\n      0x00\n        /* \"Demo.sol\":1339:1340  1 */\n      0x01\n        /* \"Demo.sol\":1324:1336  lastRecordId */\n      sload(0x00)\n        /* \"Demo.sol\":1324:1340  lastRecordId + 1 */\n      tag_55\n      swap2\n      swap1\n      tag_56\n      jump\t// in\n    tag_55:\n        /* \"Demo.sol\":1305:1340  uint256 recordId = lastRecordId + 1 */\n      swap1\n      pop\n        /* \"Demo.sol\":1365:1373  recordId */\n      dup1\n        /* \"Demo.sol\":1350:1362  lastRecordId */\n      0x00\n        /* \"Demo.sol\":1350:1373  lastRecordId = recordId */\n      dup2\n      swap1\n      sstore\n      pop\n        /* \"Demo.sol\":1404:1781  Record({... */\n      mload(0x40)\n      dup1\n      0x0160\n      add\n      0x40\n      mstore\n      dup1\n        /* \"Demo.sol\":1435:1443  recordId */\n      dup3\n        /* \"Demo.sol\":1404:1781  Record({... */\n      dup2\n      mstore\n      0x20\n      add\n        /* \"Demo.sol\":1464:1474  msg.sender */\n      caller\n        /* \"Demo.sol\":1404:1781  Record({... */\n      0xffffffffffffffffffffffffffffffffffffffff\n      and\n      dup2\n      mstore\n      0x20\n      add\n        /* \"Demo.sol\":1497:1504  payload */\n      dup12\n        /* \"Demo.sol\":1404:1781  Record({... */\n      dup2\n      mstore\n      0x20\n      add\n        /* \"Demo.sol\":1531:1542  payloadHash */\n      dup11\n        /* \"Demo.sol\":1404:1781  Record({... */\n      dup2\n      mstore\n      0x20\n      add\n        /* \"Demo.sol\":1570:1582  pqcProofHash */\n      dup10\n        /* \"Demo.sol\":1404:1781  Record({... */\n      dup2\n      mstore\n      0x20\n      add\n        /* \"Demo.sol\":1606:1614  appNonce */\n      dup9\n        /* \"Demo.sol\":1404:1781  Record({... */\n      dup2\n      mstore\n      0x20\n      add\n        /* \"Demo.sol\":1639:1648  timestamp */\n      dup8\n        /* \"Demo.sol\":1404:1781  Record({... */\n      dup2\n      mstore\n      0x20\n      add\n        /* \"Demo.sol\":1673:1682  encrypted */\n      dup7\n        /* \"Demo.sol\":1404:1781  Record({... */\n      iszero\n      iszero\n      dup2\n      mstore\n      0x20\n      add\n        /* \"Demo.sol\":1702:1706  mode */\n      dup6\n        /* \"Demo.sol\":1404:1781  Record({... */\n      dup2\n      mstore\n      0x20\n      add\n        /* \"Demo.sol\":1729:1736  ipfsCid */\n      dup5\n        /* \"Demo.sol\":1404:1781  Record({... */\n      dup2\n      mstore\n      0x20\n      add\n        /* \"Demo.sol\":1761:1770  algorithm */\n      dup4\n        /* \"Demo.sol\":1404:1781  Record({... */\n      dup2\n      mstore\n      pop\n        /* \"Demo.sol\":1384:1391  records */\n      0x01\n        /* \"Demo.sol\":1384:1401  records[recordId] */\n      0x00\n        /* \"Demo.sol\":1392:1400  recordId */\n      dup4\n        /* \"Demo.sol\":1384:1401  records[recordId] */\n      dup2\n      mstore\n      0x20\n      add\n      swap1\n      dup2\n      mstore\n      0x20\n      add\n      0x00\n      keccak256\n        /* \"Demo.sol\":1384:1781  records[recordId] = Record({... */\n      0x00\n      dup3\n      add\n      mload\n      dup2\n      0x00\n      add\n      sstore\n      0x20\n      dup3\n      add\n      mload\n      dup2\n      0x01\n      add\n      exp(0x0100, 0x00)\n      dup2\n      sload\n      dup2\n      0xffffffffffffffffffffffffffffffffffffffff\n      mul\n      not\n      and\n      swap1\n      dup4\n      0xffffffffffffffffffffffffffffffffffffffff\n      and\n      mul\n      or\n      swap1\n      sstore\n      pop\n      0x40\n      dup3\n      add\n      mload\n      dup2\n      0x02\n      add\n      swap1\n      dup2\n      tag_57\n      swap2\n      swap1\n      tag_58\n      jump\t// in\n    tag_57:\n      pop\n      0x60\n      dup3\n      add\n      mload\n      dup2\n      0x03\n      add\n      sstore\n      0x80\n      dup3\n      add\n      mload\n      dup2\n      0x04\n      add\n      sstore\n      0xa0\n      dup3\n      add\n      mload\n      dup2\n      0x05\n      add\n      sstore\n      0xc0\n      dup3\n      add\n      mload\n      dup2\n      0x06\n      add\n      sstore\n      0xe0\n      dup3\n      add\n      mload\n      dup2\n      0x07\n      add\n      exp(0x0100, 0x00)\n      dup2\n      sload\n      dup2\n      0xff\n      mul\n      not\n      and\n      swap1\n      dup4\n      iszero\n      iszero\n      mul\n      or\n      swap1\n      sstore\n      pop\n      0x0100\n      dup3\n      add\n      mload\n      dup2\n      0x08\n      add\n      swap1\n      dup2\n      tag_59\n      swap2\n      swap1\n      tag_60\n      jump\t// in\n    tag_59:\n      pop\n      0x0120\n      dup3\n      add\n      mload\n      dup2\n      0x09\n      add\n      swap1\n      dup2\n      tag_61\n      swap2\n      swap1\n      tag_60\n      jump\t// in\n    tag_61:\n      pop\n      0x0140\n      dup3\n      add\n      mload\n      dup2\n      0x0a\n      add\n      swap1\n      dup2\n      tag_62\n      swap2\n      swap1\n      tag_60\n      jump\t// in\n    tag_62:\n      pop\n      swap1\n      pop\n      pop\n        /* \"Demo.sol\":1824:1832  appNonce */\n      dup7\n        /* \"Demo.sol\":1792:1809  lastNonceBySender */\n      0x02\n        /* \"Demo.sol\":1792:1821  lastNonceBySender[msg.sender] */\n      0x00\n        /* \"Demo.sol\":1810:1820  msg.sender */\n      caller\n        /* \"Demo.sol\":1792:1821  lastNonceBySender[msg.sender] */\n      0xffffffffffffffffffffffffffffffffffffffff\n      and\n      0xffffffffffffffffffffffffffffffffffffffff\n      and\n      dup2\n      mstore\n      0x20\n      add\n      swap1\n      dup2\n      mstore\n      0x20\n      add\n      0x00\n      keccak256\n        /* \"Demo.sol\":1792:1832  lastNonceBySender[msg.sender] = appNonce */\n      dup2\n      swap1\n      sstore\n      pop\n        /* \"Demo.sol\":1896:1906  msg.sender */\n      caller\n        /* \"Demo.sol\":1848:2118  RecordStored(... */\n      0xffffffffffffffffffffffffffffffffffffffff\n      and\n        /* \"Demo.sol\":1874:1882  recordId */\n      dup2\n        /* \"Demo.sol\":1848:2118  RecordStored(... */\n      0x4d5e4ccfb7a9ada5002fd91149529bce9d9390d6fe55f36ed54d89abf9577e63\n        /* \"Demo.sol\":1920:1927  payload */\n      dup13\n        /* \"Demo.sol\":1941:1952  payloadHash */\n      dup13\n        /* \"Demo.sol\":1966:1978  pqcProofHash */\n      dup13\n        /* \"Demo.sol\":1992:2000  appNonce */\n      dup13\n        /* \"Demo.sol\":2014:2023  timestamp */\n      dup13\n        /* \"Demo.sol\":2037:2046  encrypted */\n      dup13\n        /* \"Demo.sol\":2060:2064  mode */\n      dup13\n        /* \"Demo.sol\":2078:2085  ipfsCid */\n      dup13\n        /* \"Demo.sol\":2099:2108  algorithm */\n      dup13\n        /* \"Demo.sol\":1848:2118  RecordStored(... */\n      mload(0x40)\n      tag_63\n      swap10\n      swap9\n      swap8\n      swap7\n      swap6\n      swap5\n      swap4\n      swap3\n      swap2\n      swap1\n      tag_64\n      jump\t// in\n    tag_63:\n      mload(0x40)\n      dup1\n      swap2\n      sub\n      swap1\n      log3\n        /* \"Demo.sol\":1143:2125  {... */\n      pop\n        /* \"Demo.sol\":851:2125  function storeRecord(... */\n      pop\n      pop\n      pop\n      pop\n      pop\n      pop\n      pop\n      pop\n      pop\n      jump\t// out\n        /* \"Demo.sol\":466:518  mapping(address => uint256) public lastNonceBySender */\n    tag_20:\n      mstore(0x20, 0x02)\n      dup1\n      0x00\n      mstore\n      keccak256(0x00, 0x40)\n      0x00\n      swap2\n      pop\n      swap1\n      pop\n      sload\n      dup2\n      jump\t// out\n        /* \"Demo.sol\":384:411  uint256 public lastRecordId */\n    tag_24:\n      sload(0x00)\n      dup2\n      jump\t// out\n        /* \"#utility.yul\":7:82   */\n    tag_65:\n        /* \"#utility.yul\":40:46   */\n      0x00\n        /* \"#utility.yul\":73:75   */\n      0x40\n        /* \"#utility.yul\":67:76   */\n      mload\n        /* \"#utility.yul\":57:76   */\n      swap1\n      pop\n        /* \"#utility.yul\":7:82   */\n      swap1\n      jump\t// out\n        /* \"#utility.yul\":88:205   */\n    tag_66:\n        /* \"#utility.yul\":197:198   */\n      0x00\n        /* \"#utility.yul\":194:195   */\n      0x00\n        /* \"#utility.yul\":187:199   */\n      revert\n        /* \"#utility.yul\":211:328   */\n    tag_67:\n        /* \"#utility.yul\":320:321   */\n      0x00\n        /* \"#utility.yul\":317:318   */\n      0x00\n        /* \"#utility.yul\":310:322   */\n      revert\n        /* \"#utility.yul\":334:411   */\n    tag_68:\n        /* \"#utility.yul\":371:378   */\n      0x00\n        /* \"#utility.yul\":400:405   */\n      dup2\n        /* \"#utility.yul\":389:405   */\n      swap1\n      pop\n        /* \"#utility.yul\":334:411   */\n      swap2\n      swap1\n      pop\n      jump\t// out\n        /* \"#utility.yul\":417:539   */\n    tag_69:\n        /* \"#utility.yul\":490:514   */\n      tag_134\n        /* \"#utility.yul\":508:513   */\n      dup2\n        /* \"#utility.yul\":490:514   */\n      tag_68\n      jump\t// in\n    tag_134:\n        /* \"#utility.yul\":483:488   */\n      dup2\n        /* \"#utility.yul\":480:515   */\n      eq\n        /* \"#utility.yul\":470:533   */\n      tag_135\n      jumpi\n        /* \"#utility.yul\":529:530   */\n      0x00\n        /* \"#utility.yul\":526:527   */\n      0x00\n        /* \"#utility.yul\":519:531   */\n      revert\n        /* \"#utility.yul\":470:533   */\n    tag_135:\n        /* \"#utility.yul\":417:539   */\n      pop\n      jump\t// out\n        /* \"#utility.yul\":545:684   */\n    tag_70:\n        /* \"#utility.yul\":591:596   */\n      0x00\n        /* \"#utility.yul\":629:635   */\n      dup2\n        /* \"#utility.yul\":616:636   */\n      calldataload\n        /* \"#utility.yul\":607:636   */\n      swap1\n      pop\n        /* \"#utility.yul\":645:678   */\n      tag_137\n        /* \"#utility.yul\":672:677   */\n      dup2\n        /* \"#utility.yul\":645:678   */\n      tag_69\n      jump\t// in\n    tag_137:\n        /* \"#utility.yul\":545:684   */\n      swap3\n      swap2\n      pop\n      pop\n      jump\t// out\n        /* \"#utility.yul\":690:1019   */\n    tag_9:\n        /* \"#utility.yul\":749:755   */\n      0x00\n        /* \"#utility.yul\":798:800   */\n      0x20\n        /* \"#utility.yul\":786:795   */\n      dup3\n        /* \"#utility.yul\":777:784   */\n      dup5\n        /* \"#utility.yul\":773:796   */\n      sub\n        /* \"#utility.yul\":769:801   */\n      slt\n        /* \"#utility.yul\":766:885   */\n      iszero\n      tag_139\n      jumpi\n        /* \"#utility.yul\":804:883   */\n      tag_140\n      tag_66\n      jump\t// in\n    tag_140:\n        /* \"#utility.yul\":766:885   */\n    tag_139:\n        /* \"#utility.yul\":924:925   */\n      0x00\n        /* \"#utility.yul\":949:1002   */\n      tag_141\n        /* \"#utility.yul\":994:1001   */\n      dup5\n        /* \"#utility.yul\":985:991   */\n      dup3\n        /* \"#utility.yul\":974:983   */\n      dup6\n        /* \"#utility.yul\":970:992   */\n      add\n        /* \"#utility.yul\":949:1002   */\n      tag_70\n      jump\t// in\n    tag_141:\n        /* \"#utility.yul\":939:1002   */\n      swap2\n      pop\n        /* \"#utility.yul\":895:1012   */\n      pop\n        /* \"#utility.yul\":690:1019   */\n      swap3\n      swap2\n      pop\n      pop\n      jump\t// out\n        /* \"#utility.yul\":1025:1143   */\n    tag_71:\n        /* \"#utility.yul\":1112:1136   */\n      tag_143\n        /* \"#utility.yul\":1130:1135   */\n      dup2\n        /* \"#utility.yul\":1112:1136   */\n      tag_68\n      jump\t// in\n    tag_143:\n        /* \"#utility.yul\":1107:1110   */\n      dup3\n        /* \"#utility.yul\":1100:1137   */\n      mstore\n        /* \"#utility.yul\":1025:1143   */\n      pop\n      pop\n      jump\t// out\n        /* \"#utility.yul\":1149:1275   */\n    tag_72:\n        /* \"#utility.yul\":1186:1193   */\n      0x00\n        /* \"#utility.yul\":1226:1268   */\n      0xffffffffffffffffffffffffffffffffffffffff\n        /* \"#utility.yul\":1219:1224   */\n      dup3\n        /* \"#utility.yul\":1215:1269   */\n      and\n        /* \"#utility.yul\":1204:1269   */\n      swap1\n      pop\n        /* \"#utility.yul\":1149:1275   */\n      swap2\n      swap1\n      pop\n      jump\t// out\n        /* \"#utility.yul\":1281:1377   */\n    tag_73:\n        /* \"#utility.yul\":1318:1325   */\n      0x00\n        /* \"#utility.yul\":1347:1371   */\n      tag_146\n        /* \"#utility.yul\":1365:1370   */\n      dup3\n        /* \"#utility.yul\":1347:1371   */\n      tag_72\n      jump\t// in\n    tag_146:\n        /* \"#utility.yul\":1336:1371   */\n      swap1\n      pop\n        /* \"#utility.yul\":1281:1377   */\n      swap2\n      swap1\n      pop\n      jump\t// out\n        /* \"#utility.yul\":1383:1501   */\n    tag_74:\n        /* \"#utility.yul\":1470:1494   */\n      tag_148\n        /* \"#utility.yul\":1488:1493   */\n      dup2\n        /* \"#utility.yul\":1470:1494   */\n      tag_73\n      jump\t// in\n    tag_148:\n        /* \"#utility.yul\":1465:1468   */\n      dup3\n        /* \"#utility.yul\":1458:1495   */\n      mstore\n        /* \"#utility.yul\":1383:1501   */\n      pop\n      pop\n      jump\t// out\n        /* \"#utility.yul\":1507:1605   */\n    tag_75:\n        /* \"#utility.yul\":1558:1564   */\n      0x00\n        /* \"#utility.yul\":1592:1597   */\n      dup2\n        /* \"#utility.yul\":1586:1598   */\n      mload\n        /* \"#utility.yul\":1576:1598   */\n      swap1\n      pop\n        /* \"#utility.yul\":1507:1605   */\n      swap2\n      swap1\n      pop\n      jump\t// out\n        /* \"#utility.yul\":1611:1779   */\n    tag_76:\n        /* \"#utility.yul\":1694:1705   */\n      0x00\n        /* \"#utility.yul\":1728:1734   */\n      dup3\n        /* \"#utility.yul\":1723:1726   */\n      dup3\n        /* \"#utility.yul\":1716:1735   */\n      mstore\n        /* \"#utility.yul\":1768:1772   */\n      0x20\n        /* \"#utility.yul\":1763:1766   */\n      dup3\n        /* \"#utility.yul\":1759:1773   */\n      add\n        /* \"#utility.yul\":1744:1773   */\n      swap1\n      pop\n        /* \"#utility.yul\":1611:1779   */\n      swap3\n      swap2\n      pop\n      pop\n      jump\t// out\n        /* \"#utility.yul\":1785:1924   */\n    tag_77:\n        /* \"#utility.yul\":1874:1880   */\n      dup3\n        /* \"#utility.yul\":1869:1872   */\n      dup2\n        /* \"#utility.yul\":1864:1867   */\n      dup4\n        /* \"#utility.yul\":1858:1881   */\n      mcopy\n        /* \"#utility.yul\":1915:1916   */\n      0x00\n        /* \"#utility.yul\":1906:1912   */\n      dup4\n        /* \"#utility.yul\":1901:1904   */\n      dup4\n        /* \"#utility.yul\":1897:1913   */\n      add\n        /* \"#utility.yul\":1890:1917   */\n      mstore\n        /* \"#utility.yul\":1785:1924   */\n      pop\n      pop\n      pop\n      jump\t// out\n        /* \"#utility.yul\":1930:2032   */\n    tag_78:\n        /* \"#utility.yul\":1971:1977   */\n      0x00\n        /* \"#utility.yul\":2022:2024   */\n      0x1f\n        /* \"#utility.yul\":2018:2025   */\n      not\n        /* \"#utility.yul\":2013:2015   */\n      0x1f\n        /* \"#utility.yul\":2006:2011   */\n      dup4\n        /* \"#utility.yul\":2002:2016   */\n      add\n        /* \"#utility.yul\":1998:2026   */\n      and\n        /* \"#utility.yul\":1988:2026   */\n      swap1\n      pop\n        /* \"#utility.yul\":1930:2032   */\n      swap2\n      swap1\n      pop\n      jump\t// out\n        /* \"#utility.yul\":2038:2411   */\n    tag_79:\n        /* \"#utility.yul\":2124:2127   */\n      0x00\n        /* \"#utility.yul\":2152:2190   */\n      tag_154\n        /* \"#utility.yul\":2184:2189   */\n      dup3\n        /* \"#utility.yul\":2152:2190   */\n      tag_75\n      jump\t// in\n    tag_154:\n        /* \"#utility.yul\":2206:2276   */\n      tag_155\n        /* \"#utility.yul\":2269:2275   */\n      dup2\n        /* \"#utility.yul\":2264:2267   */\n      dup6\n        /* \"#utility.yul\":2206:2276   */\n      tag_76\n      jump\t// in\n    tag_155:\n        /* \"#utility.yul\":2199:2276   */\n      swap4\n      pop\n        /* \"#utility.yul\":2285:2350   */\n      tag_156\n        /* \"#utility.yul\":2343:2349   */\n      dup2\n        /* \"#utility.yul\":2338:2341   */\n      dup6\n        /* \"#utility.yul\":2331:2335   */\n      0x20\n        /* \"#utility.yul\":2324:2329   */\n      dup7\n        /* \"#utility.yul\":2320:2336   */\n      add\n        /* \"#utility.yul\":2285:2350   */\n      tag_77\n      jump\t// in\n    tag_156:\n        /* \"#utility.yul\":2375:2404   */\n      tag_157\n        /* \"#utility.yul\":2397:2403   */\n      dup2\n        /* \"#utility.yul\":2375:2404   */\n      tag_78\n      jump\t// in\n    tag_157:\n        /* \"#utility.yul\":2370:2373   */\n      dup5\n        /* \"#utility.yul\":2366:2405   */\n      add\n        /* \"#utility.yul\":2359:2405   */\n      swap2\n      pop\n        /* \"#utility.yul\":2128:2411   */\n      pop\n        /* \"#utility.yul\":2038:2411   */\n      swap3\n      swap2\n      pop\n      pop\n      jump\t// out\n        /* \"#utility.yul\":2417:2494   */\n    tag_80:\n        /* \"#utility.yul\":2454:2461   */\n      0x00\n        /* \"#utility.yul\":2483:2488   */\n      dup2\n        /* \"#utility.yul\":2472:2488   */\n      swap1\n      pop\n        /* \"#utility.yul\":2417:2494   */\n      swap2\n      swap1\n      pop\n      jump\t// out\n        /* \"#utility.yul\":2500:2618   */\n    tag_81:\n        /* \"#utility.yul\":2587:2611   */\n      tag_160\n        /* \"#utility.yul\":2605:2610   */\n      dup2\n        /* \"#utility.yul\":2587:2611   */\n      tag_80\n      jump\t// in\n    tag_160:\n        /* \"#utility.yul\":2582:2585   */\n      dup3\n        /* \"#utility.yul\":2575:2612   */\n      mstore\n        /* \"#utility.yul\":2500:2618   */\n      pop\n      pop\n      jump\t// out\n        /* \"#utility.yul\":2624:2714   */\n    tag_82:\n        /* \"#utility.yul\":2658:2665   */\n      0x00\n        /* \"#utility.yul\":2701:2706   */\n      dup2\n        /* \"#utility.yul\":2694:2707   */\n      iszero\n        /* \"#utility.yul\":2687:2708   */\n      iszero\n        /* \"#utility.yul\":2676:2708   */\n      swap1\n      pop\n        /* \"#utility.yul\":2624:2714   */\n      swap2\n      swap1\n      pop\n      jump\t// out\n        /* \"#utility.yul\":2720:2829   */\n    tag_83:\n        /* \"#utility.yul\":2801:2822   */\n      tag_163\n        /* \"#utility.yul\":2816:2821   */\n      dup2\n        /* \"#utility.yul\":2801:2822   */\n      tag_82\n      jump\t// in\n    tag_163:\n        /* \"#utility.yul\":2796:2799   */\n      dup3\n        /* \"#utility.yul\":2789:2823   */\n      mstore\n        /* \"#utility.yul\":2720:2829   */\n      pop\n      pop\n      jump\t// out\n        /* \"#utility.yul\":2835:2934   */\n    tag_84:\n        /* \"#utility.yul\":2887:2893   */\n      0x00\n        /* \"#utility.yul\":2921:2926   */\n      dup2\n        /* \"#utility.yul\":2915:2927   */\n      mload\n        /* \"#utility.yul\":2905:2927   */\n      swap1\n      pop\n        /* \"#utility.yul\":2835:2934   */\n      swap2\n      swap1\n      pop\n      jump\t// out\n        /* \"#utility.yul\":2940:3109   */\n    tag_85:\n        /* \"#utility.yul\":3024:3035   */\n      0x00\n        /* \"#utility.yul\":3058:3064   */\n      dup3\n        /* \"#utility.yul\":3053:3056   */\n      dup3\n        /* \"#utility.yul\":3046:3065   */\n      mstore\n        /* \"#utility.yul\":3098:3102   */\n      0x20\n        /* \"#utility.yul\":3093:3096   */\n      dup3\n        /* \"#utility.yul\":3089:3103   */\n      add\n        /* \"#utility.yul\":3074:3103   */\n      swap1\n      pop\n        /* \"#utility.yul\":2940:3109   */\n      swap3\n      swap2\n      pop\n      pop\n      jump\t// out\n        /* \"#utility.yul\":3115:3492   */\n    tag_86:\n        /* \"#utility.yul\":3203:3206   */\n      0x00\n        /* \"#utility.yul\":3231:3270   */\n      tag_167\n        /* \"#utility.yul\":3264:3269   */\n      dup3\n        /* \"#utility.yul\":3231:3270   */\n      tag_84\n      jump\t// in\n    tag_167:\n        /* \"#utility.yul\":3286:3357   */\n      tag_168\n        /* \"#utility.yul\":3350:3356   */\n      dup2\n        /* \"#utility.yul\":3345:3348   */\n      dup6\n        /* \"#utility.yul\":3286:3357   */\n      tag_85\n      jump\t// in\n    tag_168:\n        /* \"#utility.yul\":3279:3357   */\n      swap4\n      pop\n        /* \"#utility.yul\":3366:3431   */\n      tag_169\n        /* \"#utility.yul\":3424:3430   */\n      dup2\n        /* \"#utility.yul\":3419:3422   */\n      dup6\n        /* \"#utility.yul\":3412:3416   */\n      0x20\n        /* \"#utility.yul\":3405:3410   */\n      dup7\n        /* \"#utility.yul\":3401:3417   */\n      add\n        /* \"#utility.yul\":3366:3431   */\n      tag_77\n      jump\t// in\n    tag_169:\n        /* \"#utility.yul\":3456:3485   */\n      tag_170\n        /* \"#utility.yul\":3478:3484   */\n      dup2\n        /* \"#utility.yul\":3456:3485   */\n      tag_78\n      jump\t// in\n    tag_170:\n        /* \"#utility.yul\":3451:3454   */\n      dup5\n        /* \"#utility.yul\":3447:3486   */\n      add\n        /* \"#utility.yul\":3440:3486   */\n      swap2\n      pop\n        /* \"#utility.yul\":3207:3492   */\n      pop\n        /* \"#utility.yul\":3115:3492   */\n      swap3\n      swap2\n      pop\n      pop\n      jump\t// out\n        /* \"#utility.yul\":3498:5178   */\n    tag_12:\n        /* \"#utility.yul\":3944:3948   */\n      0x00\n        /* \"#utility.yul\":3982:3985   */\n      0x0160\n        /* \"#utility.yul\":3971:3980   */\n      dup3\n        /* \"#utility.yul\":3967:3986   */\n      add\n        /* \"#utility.yul\":3959:3986   */\n      swap1\n      pop\n        /* \"#utility.yul\":3996:4067   */\n      tag_172\n        /* \"#utility.yul\":4064:4065   */\n      0x00\n        /* \"#utility.yul\":4053:4062   */\n      dup4\n        /* \"#utility.yul\":4049:4066   */\n      add\n        /* \"#utility.yul\":4040:4046   */\n      dup15\n        /* \"#utility.yul\":3996:4067   */\n      tag_71\n      jump\t// in\n    tag_172:\n        /* \"#utility.yul\":4077:4149   */\n      tag_173\n        /* \"#utility.yul\":4145:4147   */\n      0x20\n        /* \"#utility.yul\":4134:4143   */\n      dup4\n        /* \"#utility.yul\":4130:4148   */\n      add\n        /* \"#utility.yul\":4121:4127   */\n      dup14\n        /* \"#utility.yul\":4077:4149   */\n      tag_74\n      jump\t// in\n    tag_173:\n        /* \"#utility.yul\":4196:4205   */\n      dup2\n        /* \"#utility.yul\":4190:4194   */\n      dup2\n        /* \"#utility.yul\":4186:4206   */\n      sub\n        /* \"#utility.yul\":4181:4183   */\n      0x40\n        /* \"#utility.yul\":4170:4179   */\n      dup4\n        /* \"#utility.yul\":4166:4184   */\n      add\n        /* \"#utility.yul\":4159:4207   */\n      mstore\n        /* \"#utility.yul\":4224:4300   */\n      tag_174\n        /* \"#utility.yul\":4295:4299   */\n      dup2\n        /* \"#utility.yul\":4286:4292   */\n      dup13\n        /* \"#utility.yul\":4224:4300   */\n      tag_79\n      jump\t// in\n    tag_174:\n        /* \"#utility.yul\":4216:4300   */\n      swap1\n      pop\n        /* \"#utility.yul\":4310:4382   */\n      tag_175\n        /* \"#utility.yul\":4378:4380   */\n      0x60\n        /* \"#utility.yul\":4367:4376   */\n      dup4\n        /* \"#utility.yul\":4363:4381   */\n      add\n        /* \"#utility.yul\":4354:4360   */\n      dup12\n        /* \"#utility.yul\":4310:4382   */\n      tag_81\n      jump\t// in\n    tag_175:\n        /* \"#utility.yul\":4392:4465   */\n      tag_176\n        /* \"#utility.yul\":4460:4463   */\n      0x80\n        /* \"#utility.yul\":4449:4458   */\n      dup4\n        /* \"#utility.yul\":4445:4464   */\n      add\n        /* \"#utility.yul\":4436:4442   */\n      dup11\n        /* \"#utility.yul\":4392:4465   */\n      tag_81\n      jump\t// in\n    tag_176:\n        /* \"#utility.yul\":4475:4548   */\n      tag_177\n        /* \"#utility.yul\":4543:4546   */\n      0xa0\n        /* \"#utility.yul\":4532:4541   */\n      dup4\n        /* \"#utility.yul\":4528:4547   */\n      add\n        /* \"#utility.yul\":4519:4525   */\n      dup10\n        /* \"#utility.yul\":4475:4548   */\n      tag_71\n      jump\t// in\n    tag_177:\n        /* \"#utility.yul\":4558:4631   */\n      tag_178\n        /* \"#utility.yul\":4626:4629   */\n      0xc0\n        /* \"#utility.yul\":4615:4624   */\n      dup4\n        /* \"#utility.yul\":4611:4630   */\n      add\n        /* \"#utility.yul\":4602:4608   */\n      dup9\n        /* \"#utility.yul\":4558:4631   */\n      tag_71\n      jump\t// in\n    tag_178:\n        /* \"#utility.yul\":4641:4708   */\n      tag_179\n        /* \"#utility.yul\":4703:4706   */\n      0xe0\n        /* \"#utility.yul\":4692:4701   */\n      dup4\n        /* \"#utility.yul\":4688:4707   */\n      add\n        /* \"#utility.yul\":4679:4685   */\n      dup8\n        /* \"#utility.yul\":4641:4708   */\n      tag_83\n      jump\t// in\n    tag_179:\n        /* \"#utility.yul\":4756:4765   */\n      dup2\n        /* \"#utility.yul\":4750:4754   */\n      dup2\n        /* \"#utility.yul\":4746:4766   */\n      sub\n        /* \"#utility.yul\":4740:4743   */\n      0x0100\n        /* \"#utility.yul\":4729:4738   */\n      dup4\n        /* \"#utility.yul\":4725:4744   */\n      add\n        /* \"#utility.yul\":4718:4767   */\n      mstore\n        /* \"#utility.yul\":4784:4862   */\n      tag_180\n        /* \"#utility.yul\":4857:4861   */\n      dup2\n        /* \"#utility.yul\":4848:4854   */\n      dup7\n        /* \"#utility.yul\":4784:4862   */\n      tag_86\n      jump\t// in\n    tag_180:\n        /* \"#utility.yul\":4776:4862   */\n      swap1\n      pop\n        /* \"#utility.yul\":4910:4919   */\n      dup2\n        /* \"#utility.yul\":4904:4908   */\n      dup2\n        /* \"#utility.yul\":4900:4920   */\n      sub\n        /* \"#utility.yul\":4894:4897   */\n      0x0120\n        /* \"#utility.yul\":4883:4892   */\n      dup4\n        /* \"#utility.yul\":4879:4898   */\n      add\n        /* \"#utility.yul\":4872:4921   */\n      mstore\n        /* \"#utility.yul\":4938:5016   */\n      tag_181\n        /* \"#utility.yul\":5011:5015   */\n      dup2\n        /* \"#utility.yul\":5002:5008   */\n      dup6\n        /* \"#utility.yul\":4938:5016   */\n      tag_86\n      jump\t// in\n    tag_181:\n        /* \"#utility.yul\":4930:5016   */\n      swap1\n      pop\n        /* \"#utility.yul\":5064:5073   */\n      dup2\n        /* \"#utility.yul\":5058:5062   */\n      dup2\n        /* \"#utility.yul\":5054:5074   */\n      sub\n        /* \"#utility.yul\":5048:5051   */\n      0x0140\n        /* \"#utility.yul\":5037:5046   */\n      dup4\n        /* \"#utility.yul\":5033:5052   */\n      add\n        /* \"#utility.yul\":5026:5075   */\n      mstore\n        /* \"#utility.yul\":5092:5171   */\n      tag_182\n        /* \"#utility.yul\":5166:5170   */\n      dup2\n        /* \"#utility.yul\":5156:5163   */\n      dup5\n        /* \"#utility.yul\":5092:5171   */\n      tag_86\n      jump\t// in\n    tag_182:\n        /* \"#utility.yul\":5084:5171   */\n      swap1\n      pop\n        /* \"#utility.yul\":3498:5178   */\n      swap13\n      swap12\n      pop\n      pop\n      pop\n      pop\n      pop\n      pop\n      pop\n      pop\n      pop\n      pop\n      pop\n      pop\n      jump\t// out\n        /* \"#utility.yul\":5184:5301   */\n    tag_87:\n        /* \"#utility.yul\":5293:5294   */\n      0x00\n        /* \"#utility.yul\":5290:5291   */\n      0x00\n        /* \"#utility.yul\":5283:5295   */\n      revert\n        /* \"#utility.yul\":5307:5424   */\n    tag_88:\n        /* \"#utility.yul\":5416:5417   */\n      0x00\n        /* \"#utility.yul\":5413:5414   */\n      0x00\n        /* \"#utility.yul\":5406:5418   */\n      revert\n        /* \"#utility.yul\":5430:5610   */\n    tag_89:\n        /* \"#utility.yul\":5478:5555   */\n      0x4e487b7100000000000000000000000000000000000000000000000000000000\n        /* \"#utility.yul\":5475:5476   */\n      0x00\n        /* \"#utility.yul\":5468:5556   */\n      mstore\n        /* \"#utility.yul\":5575:5579   */\n      0x41\n        /* \"#utility.yul\":5572:5573   */\n      0x04\n        /* \"#utility.yul\":5565:5580   */\n      mstore\n        /* \"#utility.yul\":5599:5603   */\n      0x24\n        /* \"#utility.yul\":5596:5597   */\n      0x00\n        /* \"#utility.yul\":5589:5604   */\n      revert\n        /* \"#utility.yul\":5616:5897   */\n    tag_90:\n        /* \"#utility.yul\":5699:5726   */\n      tag_187\n        /* \"#utility.yul\":5721:5725   */\n      dup3\n        /* \"#utility.yul\":5699:5726   */\n      tag_78\n      jump\t// in\n    tag_187:\n        /* \"#utility.yul\":5691:5697   */\n      dup2\n        /* \"#utility.yul\":5687:5727   */\n      add\n        /* \"#utility.yul\":5829:5835   */\n      dup2\n        /* \"#utility.yul\":5817:5827   */\n      dup2\n        /* \"#utility.yul\":5814:5836   */\n      lt\n        /* \"#utility.yul\":5793:5811   */\n      0xffffffffffffffff\n        /* \"#utility.yul\":5781:5791   */\n      dup3\n        /* \"#utility.yul\":5778:5812   */\n      gt\n        /* \"#utility.yul\":5775:5837   */\n      or\n        /* \"#utility.yul\":5772:5860   */\n      iszero\n      tag_188\n      jumpi\n        /* \"#utility.yul\":5840:5858   */\n      tag_189\n      tag_89\n      jump\t// in\n    tag_189:\n        /* \"#utility.yul\":5772:5860   */\n    tag_188:\n        /* \"#utility.yul\":5880:5890   */\n      dup1\n        /* \"#utility.yul\":5876:5878   */\n      0x40\n        /* \"#utility.yul\":5869:5891   */\n      mstore\n        /* \"#utility.yul\":5659:5897   */\n      pop\n        /* \"#utility.yul\":5616:5897   */\n      pop\n      pop\n      jump\t// out\n        /* \"#utility.yul\":5903:6032   */\n    tag_91:\n        /* \"#utility.yul\":5937:5943   */\n      0x00\n        /* \"#utility.yul\":5964:5984   */\n      tag_191\n      tag_65\n      jump\t// in\n    tag_191:\n        /* \"#utility.yul\":5954:5984   */\n      swap1\n      pop\n        /* \"#utility.yul\":5993:6026   */\n      tag_192\n        /* \"#utility.yul\":6021:6025   */\n      dup3\n        /* \"#utility.yul\":6013:6019   */\n      dup3\n        /* \"#utility.yul\":5993:6026   */\n      tag_90\n      jump\t// in\n    tag_192:\n        /* \"#utility.yul\":5903:6032   */\n      swap2\n      swap1\n      pop\n      jump\t// out\n        /* \"#utility.yul\":6038:6345   */\n    tag_92:\n        /* \"#utility.yul\":6099:6103   */\n      0x00\n        /* \"#utility.yul\":6189:6207   */\n      0xffffffffffffffff\n        /* \"#utility.yul\":6181:6187   */\n      dup3\n        /* \"#utility.yul\":6178:6208   */\n      gt\n        /* \"#utility.yul\":6175:6231   */\n      iszero\n      tag_194\n      jumpi\n        /* \"#utility.yul\":6211:6229   */\n      tag_195\n      tag_89\n      jump\t// in\n    tag_195:\n        /* \"#utility.yul\":6175:6231   */\n    tag_194:\n        /* \"#utility.yul\":6249:6278   */\n      tag_196\n        /* \"#utility.yul\":6271:6277   */\n      dup3\n        /* \"#utility.yul\":6249:6278   */\n      tag_78\n      jump\t// in\n    tag_196:\n        /* \"#utility.yul\":6241:6278   */\n      swap1\n      pop\n        /* \"#utility.yul\":6333:6337   */\n      0x20\n        /* \"#utility.yul\":6327:6331   */\n      dup2\n        /* \"#utility.yul\":6323:6338   */\n      add\n        /* \"#utility.yul\":6315:6338   */\n      swap1\n      pop\n        /* \"#utility.yul\":6038:6345   */\n      swap2\n      swap1\n      pop\n      jump\t// out\n        /* \"#utility.yul\":6351:6499   */\n    tag_93:\n        /* \"#utility.yul\":6449:6455   */\n      dup3\n        /* \"#utility.yul\":6444:6447   */\n      dup2\n        /* \"#utility.yul\":6439:6442   */\n      dup4\n        /* \"#utility.yul\":6426:6456   */\n      calldatacopy\n        /* \"#utility.yul\":6490:6491   */\n      0x00\n        /* \"#utility.yul\":6481:6487   */\n      dup4\n        /* \"#utility.yul\":6476:6479   */\n      dup4\n        /* \"#utility.yul\":6472:6488   */\n      add\n        /* \"#utility.yul\":6465:6492   */\n      mstore\n        /* \"#utility.yul\":6351:6499   */\n      pop\n      pop\n      pop\n      jump\t// out\n        /* \"#utility.yul\":6505:6928   */\n    tag_94:\n        /* \"#utility.yul\":6582:6587   */\n      0x00\n        /* \"#utility.yul\":6607:6672   */\n      tag_199\n        /* \"#utility.yul\":6623:6671   */\n      tag_200\n        /* \"#utility.yul\":6664:6670   */\n      dup5\n        /* \"#utility.yul\":6623:6671   */\n      tag_92\n      jump\t// in\n    tag_200:\n        /* \"#utility.yul\":6607:6672   */\n      tag_91\n      jump\t// in\n    tag_199:\n        /* \"#utility.yul\":6598:6672   */\n      swap1\n      pop\n        /* \"#utility.yul\":6695:6701   */\n      dup3\n        /* \"#utility.yul\":6688:6693   */\n      dup2\n        /* \"#utility.yul\":6681:6702   */\n      mstore\n        /* \"#utility.yul\":6733:6737   */\n      0x20\n        /* \"#utility.yul\":6726:6731   */\n      dup2\n        /* \"#utility.yul\":6722:6738   */\n      add\n        /* \"#utility.yul\":6771:6774   */\n      dup5\n        /* \"#utility.yul\":6762:6768   */\n      dup5\n        /* \"#utility.yul\":6757:6760   */\n      dup5\n        /* \"#utility.yul\":6753:6769   */\n      add\n        /* \"#utility.yul\":6750:6775   */\n      gt\n        /* \"#utility.yul\":6747:6859   */\n      iszero\n      tag_201\n      jumpi\n        /* \"#utility.yul\":6778:6857   */\n      tag_202\n      tag_88\n      jump\t// in\n    tag_202:\n        /* \"#utility.yul\":6747:6859   */\n    tag_201:\n        /* \"#utility.yul\":6868:6922   */\n      tag_203\n        /* \"#utility.yul\":6915:6921   */\n      dup5\n        /* \"#utility.yul\":6910:6913   */\n      dup3\n        /* \"#utility.yul\":6905:6908   */\n      dup6\n        /* \"#utility.yul\":6868:6922   */\n      tag_93\n      jump\t// in\n    tag_203:\n        /* \"#utility.yul\":6588:6928   */\n      pop\n        /* \"#utility.yul\":6505:6928   */\n      swap4\n      swap3\n      pop\n      pop\n      pop\n      jump\t// out\n        /* \"#utility.yul\":6947:7285   */\n    tag_95:\n        /* \"#utility.yul\":7002:7007   */\n      0x00\n        /* \"#utility.yul\":7051:7054   */\n      dup3\n        /* \"#utility.yul\":7044:7048   */\n      0x1f\n        /* \"#utility.yul\":7036:7042   */\n      dup4\n        /* \"#utility.yul\":7032:7049   */\n      add\n        /* \"#utility.yul\":7028:7055   */\n      slt\n        /* \"#utility.yul\":7018:7140   */\n      tag_205\n      jumpi\n        /* \"#utility.yul\":7059:7138   */\n      tag_206\n      tag_87\n      jump\t// in\n    tag_206:\n        /* \"#utility.yul\":7018:7140   */\n    tag_205:\n        /* \"#utility.yul\":7176:7182   */\n      dup2\n        /* \"#utility.yul\":7163:7183   */\n      calldataload\n        /* \"#utility.yul\":7201:7279   */\n      tag_207\n        /* \"#utility.yul\":7275:7278   */\n      dup5\n        /* \"#utility.yul\":7267:7273   */\n      dup3\n        /* \"#utility.yul\":7260:7264   */\n      0x20\n        /* \"#utility.yul\":7252:7258   */\n      dup7\n        /* \"#utility.yul\":7248:7265   */\n      add\n        /* \"#utility.yul\":7201:7279   */\n      tag_94\n      jump\t// in\n    tag_207:\n        /* \"#utility.yul\":7192:7279   */\n      swap2\n      pop\n        /* \"#utility.yul\":7008:7285   */\n      pop\n        /* \"#utility.yul\":6947:7285   */\n      swap3\n      swap2\n      pop\n      pop\n      jump\t// out\n        /* \"#utility.yul\":7291:7413   */\n    tag_96:\n        /* \"#utility.yul\":7364:7388   */\n      tag_209\n        /* \"#utility.yul\":7382:7387   */\n      dup2\n        /* \"#utility.yul\":7364:7388   */\n      tag_80\n      jump\t// in\n    tag_209:\n        /* \"#utility.yul\":7357:7362   */\n      dup2\n        /* \"#utility.yul\":7354:7389   */\n      eq\n        /* \"#utility.yul\":7344:7407   */\n      tag_210\n      jumpi\n        /* \"#utility.yul\":7403:7404   */\n      0x00\n        /* \"#utility.yul\":7400:7401   */\n      0x00\n        /* \"#utility.yul\":7393:7405   */\n      revert\n        /* \"#utility.yul\":7344:7407   */\n    tag_210:\n        /* \"#utility.yul\":7291:7413   */\n      pop\n      jump\t// out\n        /* \"#utility.yul\":7419:7558   */\n    tag_97:\n        /* \"#utility.yul\":7465:7470   */\n      0x00\n        /* \"#utility.yul\":7503:7509   */\n      dup2\n        /* \"#utility.yul\":7490:7510   */\n      calldataload\n        /* \"#utility.yul\":7481:7510   */\n      swap1\n      pop\n        /* \"#utility.yul\":7519:7552   */\n      tag_212\n        /* \"#utility.yul\":7546:7551   */\n      dup2\n        /* \"#utility.yul\":7519:7552   */\n      tag_96\n      jump\t// in\n    tag_212:\n        /* \"#utility.yul\":7419:7558   */\n      swap3\n      swap2\n      pop\n      pop\n      jump\t// out\n        /* \"#utility.yul\":7564:7680   */\n    tag_98:\n        /* \"#utility.yul\":7634:7655   */\n      tag_214\n        /* \"#utility.yul\":7649:7654   */\n      dup2\n        /* \"#utility.yul\":7634:7655   */\n      tag_82\n      jump\t// in\n    tag_214:\n        /* \"#utility.yul\":7627:7632   */\n      dup2\n        /* \"#utility.yul\":7624:7656   */\n      eq\n        /* \"#utility.yul\":7614:7674   */\n      tag_215\n      jumpi\n        /* \"#utility.yul\":7670:7671   */\n      0x00\n        /* \"#utility.yul\":7667:7668   */\n      0x00\n        /* \"#utility.yul\":7660:7672   */\n      revert\n        /* \"#utility.yul\":7614:7674   */\n    tag_215:\n        /* \"#utility.yul\":7564:7680   */\n      pop\n      jump\t// out\n        /* \"#utility.yul\":7686:7819   */\n    tag_99:\n        /* \"#utility.yul\":7729:7734   */\n      0x00\n        /* \"#utility.yul\":7767:7773   */\n      dup2\n        /* \"#utility.yul\":7754:7774   */\n      calldataload\n        /* \"#utility.yul\":7745:7774   */\n      swap1\n      pop\n        /* \"#utility.yul\":7783:7813   */\n      tag_217\n        /* \"#utility.yul\":7807:7812   */\n      dup2\n        /* \"#utility.yul\":7783:7813   */\n      tag_98\n      jump\t// in\n    tag_217:\n        /* \"#utility.yul\":7686:7819   */\n      swap3\n      swap2\n      pop\n      pop\n      jump\t// out\n        /* \"#utility.yul\":7825:8133   */\n    tag_100:\n        /* \"#utility.yul\":7887:7891   */\n      0x00\n        /* \"#utility.yul\":7977:7995   */\n      0xffffffffffffffff\n        /* \"#utility.yul\":7969:7975   */\n      dup3\n        /* \"#utility.yul\":7966:7996   */\n      gt\n        /* \"#utility.yul\":7963:8019   */\n      iszero\n      tag_219\n      jumpi\n        /* \"#utility.yul\":7999:8017   */\n      tag_220\n      tag_89\n      jump\t// in\n    tag_220:\n        /* \"#utility.yul\":7963:8019   */\n    tag_219:\n        /* \"#utility.yul\":8037:8066   */\n      tag_221\n        /* \"#utility.yul\":8059:8065   */\n      dup3\n        /* \"#utility.yul\":8037:8066   */\n      tag_78\n      jump\t// in\n    tag_221:\n        /* \"#utility.yul\":8029:8066   */\n      swap1\n      pop\n        /* \"#utility.yul\":8121:8125   */\n      0x20\n        /* \"#utility.yul\":8115:8119   */\n      dup2\n        /* \"#utility.yul\":8111:8126   */\n      add\n        /* \"#utility.yul\":8103:8126   */\n      swap1\n      pop\n        /* \"#utility.yul\":7825:8133   */\n      swap2\n      swap1\n      pop\n      jump\t// out\n        /* \"#utility.yul\":8139:8564   */\n    tag_101:\n        /* \"#utility.yul\":8217:8222   */\n      0x00\n        /* \"#utility.yul\":8242:8308   */\n      tag_223\n        /* \"#utility.yul\":8258:8307   */\n      tag_224\n        /* \"#utility.yul\":8300:8306   */\n      dup5\n        /* \"#utility.yul\":8258:8307   */\n      tag_100\n      jump\t// in\n    tag_224:\n        /* \"#utility.yul\":8242:8308   */\n      tag_91\n      jump\t// in\n    tag_223:\n        /* \"#utility.yul\":8233:8308   */\n      swap1\n      pop\n        /* \"#utility.yul\":8331:8337   */\n      dup3\n        /* \"#utility.yul\":8324:8329   */\n      dup2\n        /* \"#utility.yul\":8317:8338   */\n      mstore\n        /* \"#utility.yul\":8369:8373   */\n      0x20\n        /* \"#utility.yul\":8362:8367   */\n      dup2\n        /* \"#utility.yul\":8358:8374   */\n      add\n        /* \"#utility.yul\":8407:8410   */\n      dup5\n        /* \"#utility.yul\":8398:8404   */\n      dup5\n        /* \"#utility.yul\":8393:8396   */\n      dup5\n        /* \"#utility.yul\":8389:8405   */\n      add\n        /* \"#utility.yul\":8386:8411   */\n      gt\n        /* \"#utility.yul\":8383:8495   */\n      iszero\n      tag_225\n      jumpi\n        /* \"#utility.yul\":8414:8493   */\n      tag_226\n      tag_88\n      jump\t// in\n    tag_226:\n        /* \"#utility.yul\":8383:8495   */\n    tag_225:\n        /* \"#utility.yul\":8504:8558   */\n      tag_227\n        /* \"#utility.yul\":8551:8557   */\n      dup5\n        /* \"#utility.yul\":8546:8549   */\n      dup3\n        /* \"#utility.yul\":8541:8544   */\n      dup6\n        /* \"#utility.yul\":8504:8558   */\n      tag_93\n      jump\t// in\n    tag_227:\n        /* \"#utility.yul\":8223:8564   */\n      pop\n        /* \"#utility.yul\":8139:8564   */\n      swap4\n      swap3\n      pop\n      pop\n      pop\n      jump\t// out\n        /* \"#utility.yul\":8584:8924   */\n    tag_102:\n        /* \"#utility.yul\":8640:8645   */\n      0x00\n        /* \"#utility.yul\":8689:8692   */\n      dup3\n        /* \"#utility.yul\":8682:8686   */\n      0x1f\n        /* \"#utility.yul\":8674:8680   */\n      dup4\n        /* \"#utility.yul\":8670:8687   */\n      add\n        /* \"#utility.yul\":8666:8693   */\n      slt\n        /* \"#utility.yul\":8656:8778   */\n      tag_229\n      jumpi\n        /* \"#utility.yul\":8697:8776   */\n      tag_230\n      tag_87\n      jump\t// in\n    tag_230:\n        /* \"#utility.yul\":8656:8778   */\n    tag_229:\n        /* \"#utility.yul\":8814:8820   */\n      dup2\n        /* \"#utility.yul\":8801:8821   */\n      calldataload\n        /* \"#utility.yul\":8839:8918   */\n      tag_231\n        /* \"#utility.yul\":8914:8917   */\n      dup5\n        /* \"#utility.yul\":8906:8912   */\n      dup3\n        /* \"#utility.yul\":8899:8903   */\n      0x20\n        /* \"#utility.yul\":8891:8897   */\n      dup7\n        /* \"#utility.yul\":8887:8904   */\n      add\n        /* \"#utility.yul\":8839:8918   */\n      tag_101\n      jump\t// in\n    tag_231:\n        /* \"#utility.yul\":8830:8918   */\n      swap2\n      pop\n        /* \"#utility.yul\":8646:8924   */\n      pop\n        /* \"#utility.yul\":8584:8924   */\n      swap3\n      swap2\n      pop\n      pop\n      jump\t// out\n        /* \"#utility.yul\":8930:11137   */\n    tag_15:\n        /* \"#utility.yul\":9097:9103   */\n      0x00\n        /* \"#utility.yul\":9105:9111   */\n      0x00\n        /* \"#utility.yul\":9113:9119   */\n      0x00\n        /* \"#utility.yul\":9121:9127   */\n      0x00\n        /* \"#utility.yul\":9129:9135   */\n      0x00\n        /* \"#utility.yul\":9137:9143   */\n      0x00\n        /* \"#utility.yul\":9145:9151   */\n      0x00\n        /* \"#utility.yul\":9153:9159   */\n      0x00\n        /* \"#utility.yul\":9161:9167   */\n      0x00\n        /* \"#utility.yul\":9210:9213   */\n      0x0120\n        /* \"#utility.yul\":9198:9207   */\n      dup11\n        /* \"#utility.yul\":9189:9196   */\n      dup13\n        /* \"#utility.yul\":9185:9208   */\n      sub\n        /* \"#utility.yul\":9181:9214   */\n      slt\n        /* \"#utility.yul\":9178:9298   */\n      iszero\n      tag_233\n      jumpi\n        /* \"#utility.yul\":9217:9296   */\n      tag_234\n      tag_66\n      jump\t// in\n    tag_234:\n        /* \"#utility.yul\":9178:9298   */\n    tag_233:\n        /* \"#utility.yul\":9365:9366   */\n      0x00\n        /* \"#utility.yul\":9354:9363   */\n      dup11\n        /* \"#utility.yul\":9350:9367   */\n      add\n        /* \"#utility.yul\":9337:9368   */\n      calldataload\n        /* \"#utility.yul\":9395:9413   */\n      0xffffffffffffffff\n        /* \"#utility.yul\":9387:9393   */\n      dup2\n        /* \"#utility.yul\":9384:9414   */\n      gt\n        /* \"#utility.yul\":9381:9498   */\n      iszero\n      tag_235\n      jumpi\n        /* \"#utility.yul\":9417:9496   */\n      tag_236\n      tag_67\n      jump\t// in\n    tag_236:\n        /* \"#utility.yul\":9381:9498   */\n    tag_235:\n        /* \"#utility.yul\":9522:9584   */\n      tag_237\n        /* \"#utility.yul\":9576:9583   */\n      dup13\n        /* \"#utility.yul\":9567:9573   */\n      dup3\n        /* \"#utility.yul\":9556:9565   */\n      dup14\n        /* \"#utility.yul\":9552:9574   */\n      add\n        /* \"#utility.yul\":9522:9584   */\n      tag_95\n      jump\t// in\n    tag_237:\n        /* \"#utility.yul\":9512:9584   */\n      swap10\n      pop\n        /* \"#utility.yul\":9308:9594   */\n      pop\n        /* \"#utility.yul\":9633:9635   */\n      0x20\n        /* \"#utility.yul\":9659:9712   */\n      tag_238\n        /* \"#utility.yul\":9704:9711   */\n      dup13\n        /* \"#utility.yul\":9695:9701   */\n      dup3\n        /* \"#utility.yul\":9684:9693   */\n      dup14\n        /* \"#utility.yul\":9680:9702   */\n      add\n        /* \"#utility.yul\":9659:9712   */\n      tag_97\n      jump\t// in\n    tag_238:\n        /* \"#utility.yul\":9649:9712   */\n      swap9\n      pop\n        /* \"#utility.yul\":9604:9722   */\n      pop\n        /* \"#utility.yul\":9761:9763   */\n      0x40\n        /* \"#utility.yul\":9787:9840   */\n      tag_239\n        /* \"#utility.yul\":9832:9839   */\n      dup13\n        /* \"#utility.yul\":9823:9829   */\n      dup3\n        /* \"#utility.yul\":9812:9821   */\n      dup14\n        /* \"#utility.yul\":9808:9830   */\n      add\n        /* \"#utility.yul\":9787:9840   */\n      tag_97\n      jump\t// in\n    tag_239:\n        /* \"#utility.yul\":9777:9840   */\n      swap8\n      pop\n        /* \"#utility.yul\":9732:9850   */\n      pop\n        /* \"#utility.yul\":9889:9891   */\n      0x60\n        /* \"#utility.yul\":9915:9968   */\n      tag_240\n        /* \"#utility.yul\":9960:9967   */\n      dup13\n        /* \"#utility.yul\":9951:9957   */\n      dup3\n        /* \"#utility.yul\":9940:9949   */\n      dup14\n        /* \"#utility.yul\":9936:9958   */\n      add\n        /* \"#utility.yul\":9915:9968   */\n      tag_70\n      jump\t// in\n    tag_240:\n        /* \"#utility.yul\":9905:9968   */\n      swap7\n      pop\n        /* \"#utility.yul\":9860:9978   */\n      pop\n        /* \"#utility.yul\":10017:10020   */\n      0x80\n        /* \"#utility.yul\":10044:10097   */\n      tag_241\n        /* \"#utility.yul\":10089:10096   */\n      dup13\n        /* \"#utility.yul\":10080:10086   */\n      dup3\n        /* \"#utility.yul\":10069:10078   */\n      dup14\n        /* \"#utility.yul\":10065:10087   */\n      add\n        /* \"#utility.yul\":10044:10097   */\n      tag_70\n      jump\t// in\n    tag_241:\n        /* \"#utility.yul\":10034:10097   */\n      swap6\n      pop\n        /* \"#utility.yul\":9988:10107   */\n      pop\n        /* \"#utility.yul\":10146:10149   */\n      0xa0\n        /* \"#utility.yul\":10173:10223   */\n      tag_242\n        /* \"#utility.yul\":10215:10222   */\n      dup13\n        /* \"#utility.yul\":10206:10212   */\n      dup3\n        /* \"#utility.yul\":10195:10204   */\n      dup14\n        /* \"#utility.yul\":10191:10213   */\n      add\n        /* \"#utility.yul\":10173:10223   */\n      tag_99\n      jump\t// in\n    tag_242:\n        /* \"#utility.yul\":10163:10223   */\n      swap5\n      pop\n        /* \"#utility.yul\":10117:10233   */\n      pop\n        /* \"#utility.yul\":10300:10303   */\n      0xc0\n        /* \"#utility.yul\":10289:10298   */\n      dup11\n        /* \"#utility.yul\":10285:10304   */\n      add\n        /* \"#utility.yul\":10272:10305   */\n      calldataload\n        /* \"#utility.yul\":10332:10350   */\n      0xffffffffffffffff\n        /* \"#utility.yul\":10324:10330   */\n      dup2\n        /* \"#utility.yul\":10321:10351   */\n      gt\n        /* \"#utility.yul\":10318:10435   */\n      iszero\n      tag_243\n      jumpi\n        /* \"#utility.yul\":10354:10433   */\n      tag_244\n      tag_67\n      jump\t// in\n    tag_244:\n        /* \"#utility.yul\":10318:10435   */\n    tag_243:\n        /* \"#utility.yul\":10459:10522   */\n      tag_245\n        /* \"#utility.yul\":10514:10521   */\n      dup13\n        /* \"#utility.yul\":10505:10511   */\n      dup3\n        /* \"#utility.yul\":10494:10503   */\n      dup14\n        /* \"#utility.yul\":10490:10512   */\n      add\n        /* \"#utility.yul\":10459:10522   */\n      tag_102\n      jump\t// in\n    tag_245:\n        /* \"#utility.yul\":10449:10522   */\n      swap4\n      pop\n        /* \"#utility.yul\":10243:10532   */\n      pop\n        /* \"#utility.yul\":10599:10602   */\n      0xe0\n        /* \"#utility.yul\":10588:10597   */\n      dup11\n        /* \"#utility.yul\":10584:10603   */\n      add\n        /* \"#utility.yul\":10571:10604   */\n      calldataload\n        /* \"#utility.yul\":10631:10649   */\n      0xffffffffffffffff\n        /* \"#utility.yul\":10623:10629   */\n      dup2\n        /* \"#utility.yul\":10620:10650   */\n      gt\n        /* \"#utility.yul\":10617:10734   */\n      iszero\n      tag_246\n      jumpi\n        /* \"#utility.yul\":10653:10732   */\n      tag_247\n      tag_67\n      jump\t// in\n    tag_247:\n        /* \"#utility.yul\":10617:10734   */\n    tag_246:\n        /* \"#utility.yul\":10758:10821   */\n      tag_248\n        /* \"#utility.yul\":10813:10820   */\n      dup13\n        /* \"#utility.yul\":10804:10810   */\n      dup3\n        /* \"#utility.yul\":10793:10802   */\n      dup14\n        /* \"#utility.yul\":10789:10811   */\n      add\n        /* \"#utility.yul\":10758:10821   */\n      tag_102\n      jump\t// in\n    tag_248:\n        /* \"#utility.yul\":10748:10821   */\n      swap3\n      pop\n        /* \"#utility.yul\":10542:10831   */\n      pop\n        /* \"#utility.yul\":10898:10901   */\n      0x0100\n        /* \"#utility.yul\":10887:10896   */\n      dup11\n        /* \"#utility.yul\":10883:10902   */\n      add\n        /* \"#utility.yul\":10870:10903   */\n      calldataload\n        /* \"#utility.yul\":10930:10948   */\n      0xffffffffffffffff\n        /* \"#utility.yul\":10922:10928   */\n      dup2\n        /* \"#utility.yul\":10919:10949   */\n      gt\n        /* \"#utility.yul\":10916:11033   */\n      iszero\n      tag_249\n      jumpi\n        /* \"#utility.yul\":10952:11031   */\n      tag_250\n      tag_67\n      jump\t// in\n    tag_250:\n        /* \"#utility.yul\":10916:11033   */\n    tag_249:\n        /* \"#utility.yul\":11057:11120   */\n      tag_251\n        /* \"#utility.yul\":11112:11119   */\n      dup13\n        /* \"#utility.yul\":11103:11109   */\n      dup3\n        /* \"#utility.yul\":11092:11101   */\n      dup14\n        /* \"#utility.yul\":11088:11110   */\n      add\n        /* \"#utility.yul\":11057:11120   */\n      tag_102\n      jump\t// in\n    tag_251:\n        /* \"#utility.yul\":11047:11120   */\n      swap2\n      pop\n        /* \"#utility.yul\":10841:11130   */\n      pop\n        /* \"#utility.yul\":8930:11137   */\n      swap3\n      swap6\n      swap9\n      pop\n      swap3\n      swap6\n      swap9\n      pop\n      swap3\n      swap6\n      swap9\n      jump\t// out\n        /* \"#utility.yul\":11143:11265   */\n    tag_103:\n        /* \"#utility.yul\":11216:11240   */\n      tag_253\n        /* \"#utility.yul\":11234:11239   */\n      dup2\n        /* \"#utility.yul\":11216:11240   */\n      tag_73\n      jump\t// in\n    tag_253:\n        /* \"#utility.yul\":11209:11214   */\n      dup2\n        /* \"#utility.yul\":11206:11241   */\n      eq\n        /* \"#utility.yul\":11196:11259   */\n      tag_254\n      jumpi\n        /* \"#utility.yul\":11255:11256   */\n      0x00\n        /* \"#utility.yul\":11252:11253   */\n      0x00\n        /* \"#utility.yul\":11245:11257   */\n      revert\n        /* \"#utility.yul\":11196:11259   */\n    tag_254:\n        /* \"#utility.yul\":11143:11265   */\n      pop\n      jump\t// out\n        /* \"#utility.yul\":11271:11410   */\n    tag_104:\n        /* \"#utility.yul\":11317:11322   */\n      0x00\n        /* \"#utility.yul\":11355:11361   */\n      dup2\n        /* \"#utility.yul\":11342:11362   */\n      calldataload\n        /* \"#utility.yul\":11333:11362   */\n      swap1\n      pop\n        /* \"#utility.yul\":11371:11404   */\n      tag_256\n        /* \"#utility.yul\":11398:11403   */\n      dup2\n        /* \"#utility.yul\":11371:11404   */\n      tag_103\n      jump\t// in\n    tag_256:\n        /* \"#utility.yul\":11271:11410   */\n      swap3\n      swap2\n      pop\n      pop\n      jump\t// out\n        /* \"#utility.yul\":11416:11745   */\n    tag_19:\n        /* \"#utility.yul\":11475:11481   */\n      0x00\n        /* \"#utility.yul\":11524:11526   */\n      0x20\n        /* \"#utility.yul\":11512:11521   */\n      dup3\n        /* \"#utility.yul\":11503:11510   */\n      dup5\n        /* \"#utility.yul\":11499:11522   */\n      sub\n        /* \"#utility.yul\":11495:11527   */\n      slt\n        /* \"#utility.yul\":11492:11611   */\n      iszero\n      tag_258\n      jumpi\n        /* \"#utility.yul\":11530:11609   */\n      tag_259\n      tag_66\n      jump\t// in\n    tag_259:\n        /* \"#utility.yul\":11492:11611   */\n    tag_258:\n        /* \"#utility.yul\":11650:11651   */\n      0x00\n        /* \"#utility.yul\":11675:11728   */\n      tag_260\n        /* \"#utility.yul\":11720:11727   */\n      dup5\n        /* \"#utility.yul\":11711:11717   */\n      dup3\n        /* \"#utility.yul\":11700:11709   */\n      dup6\n        /* \"#utility.yul\":11696:11718   */\n      add\n        /* \"#utility.yul\":11675:11728   */\n      tag_104\n      jump\t// in\n    tag_260:\n        /* \"#utility.yul\":11665:11728   */\n      swap2\n      pop\n        /* \"#utility.yul\":11621:11738   */\n      pop\n        /* \"#utility.yul\":11416:11745   */\n      swap3\n      swap2\n      pop\n      pop\n      jump\t// out\n        /* \"#utility.yul\":11751:11973   */\n    tag_22:\n        /* \"#utility.yul\":11844:11848   */\n      0x00\n        /* \"#utility.yul\":11882:11884   */\n      0x20\n        /* \"#utility.yul\":11871:11880   */\n      dup3\n        /* \"#utility.yul\":11867:11885   */\n      add\n        /* \"#utility.yul\":11859:11885   */\n      swap1\n      pop\n        /* \"#utility.yul\":11895:11966   */\n      tag_262\n        /* \"#utility.yul\":11963:11964   */\n      0x00\n        /* \"#utility.yul\":11952:11961   */\n      dup4\n        /* \"#utility.yul\":11948:11965   */\n      add\n        /* \"#utility.yul\":11939:11945   */\n      dup5\n        /* \"#utility.yul\":11895:11966   */\n      tag_71\n      jump\t// in\n    tag_262:\n        /* \"#utility.yul\":11751:11973   */\n      swap3\n      swap2\n      pop\n      pop\n      jump\t// out\n        /* \"#utility.yul\":11979:12159   */\n    tag_105:\n        /* \"#utility.yul\":12027:12104   */\n      0x4e487b7100000000000000000000000000000000000000000000000000000000\n        /* \"#utility.yul\":12024:12025   */\n      0x00\n        /* \"#utility.yul\":12017:12105   */\n      mstore\n        /* \"#utility.yul\":12124:12128   */\n      0x22\n        /* \"#utility.yul\":12121:12122   */\n      0x04\n        /* \"#utility.yul\":12114:12129   */\n      mstore\n        /* \"#utility.yul\":12148:12152   */\n      0x24\n        /* \"#utility.yul\":12145:12146   */\n      0x00\n        /* \"#utility.yul\":12138:12153   */\n      revert\n        /* \"#utility.yul\":12165:12485   */\n    tag_28:\n        /* \"#utility.yul\":12209:12215   */\n      0x00\n        /* \"#utility.yul\":12246:12247   */\n      0x02\n        /* \"#utility.yul\":12240:12244   */\n      dup3\n        /* \"#utility.yul\":12236:12248   */\n      div\n        /* \"#utility.yul\":12226:12248   */\n      swap1\n      pop\n        /* \"#utility.yul\":12293:12294   */\n      0x01\n        /* \"#utility.yul\":12287:12291   */\n      dup3\n        /* \"#utility.yul\":12283:12295   */\n      and\n        /* \"#utility.yul\":12314:12332   */\n      dup1\n        /* \"#utility.yul\":12304:12385   */\n      tag_265\n      jumpi\n        /* \"#utility.yul\":12370:12374   */\n      0x7f\n        /* \"#utility.yul\":12362:12368   */\n      dup3\n        /* \"#utility.yul\":12358:12375   */\n      and\n        /* \"#utility.yul\":12348:12375   */\n      swap2\n      pop\n        /* \"#utility.yul\":12304:12385   */\n    tag_265:\n        /* \"#utility.yul\":12432:12434   */\n      0x20\n        /* \"#utility.yul\":12424:12430   */\n      dup3\n        /* \"#utility.yul\":12421:12435   */\n      lt\n        /* \"#utility.yul\":12401:12419   */\n      dup2\n        /* \"#utility.yul\":12398:12436   */\n      sub\n        /* \"#utility.yul\":12395:12479   */\n      tag_266\n      jumpi\n        /* \"#utility.yul\":12451:12469   */\n      tag_267\n      tag_105\n      jump\t// in\n    tag_267:\n        /* \"#utility.yul\":12395:12479   */\n    tag_266:\n        /* \"#utility.yul\":12216:12485   */\n      pop\n        /* \"#utility.yul\":12165:12485   */\n      swap2\n      swap1\n      pop\n      jump\t// out\n        /* \"#utility.yul\":12491:12652   */\n    tag_106:\n        /* \"#utility.yul\":12631:12644   */\n      0x7374616c65206e6f6e6365000000000000000000000000000000000000000000\n        /* \"#utility.yul\":12627:12628   */\n      0x00\n        /* \"#utility.yul\":12619:12625   */\n      dup3\n        /* \"#utility.yul\":12615:12629   */\n      add\n        /* \"#utility.yul\":12608:12645   */\n      mstore\n        /* \"#utility.yul\":12491:12652   */\n      pop\n      jump\t// out\n        /* \"#utility.yul\":12658:13024   */\n    tag_107:\n        /* \"#utility.yul\":12800:12803   */\n      0x00\n        /* \"#utility.yul\":12821:12888   */\n      tag_270\n        /* \"#utility.yul\":12885:12887   */\n      0x0b\n        /* \"#utility.yul\":12880:12883   */\n      dup4\n        /* \"#utility.yul\":12821:12888   */\n      tag_85\n      jump\t// in\n    tag_270:\n        /* \"#utility.yul\":12814:12888   */\n      swap2\n      pop\n        /* \"#utility.yul\":12897:12990   */\n      tag_271\n        /* \"#utility.yul\":12986:12989   */\n      dup3\n        /* \"#utility.yul\":12897:12990   */\n      tag_106\n      jump\t// in\n    tag_271:\n        /* \"#utility.yul\":13015:13017   */\n      0x20\n        /* \"#utility.yul\":13010:13013   */\n      dup3\n        /* \"#utility.yul\":13006:13018   */\n      add\n        /* \"#utility.yul\":12999:13018   */\n      swap1\n      pop\n        /* \"#utility.yul\":12658:13024   */\n      swap2\n      swap1\n      pop\n      jump\t// out\n        /* \"#utility.yul\":13030:13449   */\n    tag_51:\n        /* \"#utility.yul\":13196:13200   */\n      0x00\n        /* \"#utility.yul\":13234:13236   */\n      0x20\n        /* \"#utility.yul\":13223:13232   */\n      dup3\n        /* \"#utility.yul\":13219:13237   */\n      add\n        /* \"#utility.yul\":13211:13237   */\n      swap1\n      pop\n        /* \"#utility.yul\":13283:13292   */\n      dup2\n        /* \"#utility.yul\":13277:13281   */\n      dup2\n        /* \"#utility.yul\":13273:13293   */\n      sub\n        /* \"#utility.yul\":13269:13270   */\n      0x00\n        /* \"#utility.yul\":13258:13267   */\n      dup4\n        /* \"#utility.yul\":13254:13271   */\n      add\n        /* \"#utility.yul\":13247:13294   */\n      mstore\n        /* \"#utility.yul\":13311:13442   */\n      tag_273\n        /* \"#utility.yul\":13437:13441   */\n      dup2\n        /* \"#utility.yul\":13311:13442   */\n      tag_107\n      jump\t// in\n    tag_273:\n        /* \"#utility.yul\":13303:13442   */\n      swap1\n      pop\n        /* \"#utility.yul\":13030:13449   */\n      swap2\n      swap1\n      pop\n      jump\t// out\n        /* \"#utility.yul\":13455:13626   */\n    tag_108:\n        /* \"#utility.yul\":13595:13618   */\n      0x7061796c6f61642068617368206d69736d617463680000000000000000000000\n        /* \"#utility.yul\":13591:13592   */\n      0x00\n        /* \"#utility.yul\":13583:13589   */\n      dup3\n        /* \"#utility.yul\":13579:13593   */\n      add\n        /* \"#utility.yul\":13572:13619   */\n      mstore\n        /* \"#utility.yul\":13455:13626   */\n      pop\n      jump\t// out\n        /* \"#utility.yul\":13632:13998   */\n    tag_109:\n        /* \"#utility.yul\":13774:13777   */\n      0x00\n        /* \"#utility.yul\":13795:13862   */\n      tag_276\n        /* \"#utility.yul\":13859:13861   */\n      0x15\n        /* \"#utility.yul\":13854:13857   */\n      dup4\n        /* \"#utility.yul\":13795:13862   */\n      tag_85\n      jump\t// in\n    tag_276:\n        /* \"#utility.yul\":13788:13862   */\n      swap2\n      pop\n        /* \"#utility.yul\":13871:13964   */\n      tag_277\n        /* \"#utility.yul\":13960:13963   */\n      dup3\n        /* \"#utility.yul\":13871:13964   */\n      tag_108\n      jump\t// in\n    tag_277:\n        /* \"#utility.yul\":13989:13991   */\n      0x20\n        /* \"#utility.yul\":13984:13987   */\n      dup3\n        /* \"#utility.yul\":13980:13992   */\n      add\n        /* \"#utility.yul\":13973:13992   */\n      swap1\n      pop\n        /* \"#utility.yul\":13632:13998   */\n      swap2\n      swap1\n      pop\n      jump\t// out\n        /* \"#utility.yul\":14004:14423   */\n    tag_54:\n        /* \"#utility.yul\":14170:14174   */\n      0x00\n        /* \"#utility.yul\":14208:14210   */\n      0x20\n        /* \"#utility.yul\":14197:14206   */\n      dup3\n        /* \"#utility.yul\":14193:14211   */\n      add\n        /* \"#utility.yul\":14185:14211   */\n      swap1\n      pop\n        /* \"#utility.yul\":14257:14266   */\n      dup2\n        /* \"#utility.yul\":14251:14255   */\n      dup2\n        /* \"#utility.yul\":14247:14267   */\n      sub\n        /* \"#utility.yul\":14243:14244   */\n      0x00\n        /* \"#utility.yul\":14232:14241   */\n      dup4\n        /* \"#utility.yul\":14228:14245   */\n      add\n        /* \"#utility.yul\":14221:14268   */\n      mstore\n        /* \"#utility.yul\":14285:14416   */\n      tag_279\n        /* \"#utility.yul\":14411:14415   */\n      dup2\n        /* \"#utility.yul\":14285:14416   */\n      tag_109\n      jump\t// in\n    tag_279:\n        /* \"#utility.yul\":14277:14416   */\n      swap1\n      pop\n        /* \"#utility.yul\":14004:14423   */\n      swap2\n      swap1\n      pop\n      jump\t// out\n        /* \"#utility.yul\":14429:14609   */\n    tag_110:\n        /* \"#utility.yul\":14477:14554   */\n      0x4e487b7100000000000000000000000000000000000000000000000000000000\n        /* \"#utility.yul\":14474:14475   */\n      0x00\n        /* \"#utility.yul\":14467:14555   */\n      mstore\n        /* \"#utility.yul\":14574:14578   */\n      0x11\n        /* \"#utility.yul\":14571:14572   */\n      0x04\n        /* \"#utility.yul\":14564:14579   */\n      mstore\n        /* \"#utility.yul\":14598:14602   */\n      0x24\n        /* \"#utility.yul\":14595:14596   */\n      0x00\n        /* \"#utility.yul\":14588:14603   */\n      revert\n        /* \"#utility.yul\":14615:14806   */\n    tag_56:\n        /* \"#utility.yul\":14655:14658   */\n      0x00\n        /* \"#utility.yul\":14674:14694   */\n      tag_282\n        /* \"#utility.yul\":14692:14693   */\n      dup3\n        /* \"#utility.yul\":14674:14694   */\n      tag_68\n      jump\t// in\n    tag_282:\n        /* \"#utility.yul\":14669:14694   */\n      swap2\n      pop\n        /* \"#utility.yul\":14708:14728   */\n      tag_283\n        /* \"#utility.yul\":14726:14727   */\n      dup4\n        /* \"#utility.yul\":14708:14728   */\n      tag_68\n      jump\t// in\n    tag_283:\n        /* \"#utility.yul\":14703:14728   */\n      swap3\n      pop\n        /* \"#utility.yul\":14751:14752   */\n      dup3\n        /* \"#utility.yul\":14748:14749   */\n      dup3\n        /* \"#utility.yul\":14744:14753   */\n      add\n        /* \"#utility.yul\":14737:14753   */\n      swap1\n      pop\n        /* \"#utility.yul\":14772:14775   */\n      dup1\n        /* \"#utility.yul\":14769:14770   */\n      dup3\n        /* \"#utility.yul\":14766:14776   */\n      gt\n        /* \"#utility.yul\":14763:14799   */\n      iszero\n      tag_284\n      jumpi\n        /* \"#utility.yul\":14779:14797   */\n      tag_285\n      tag_110\n      jump\t// in\n    tag_285:\n        /* \"#utility.yul\":14763:14799   */\n    tag_284:\n        /* \"#utility.yul\":14615:14806   */\n      swap3\n      swap2\n      pop\n      pop\n      jump\t// out\n        /* \"#utility.yul\":14812:14952   */\n    tag_111:\n        /* \"#utility.yul\":14860:14864   */\n      0x00\n        /* \"#utility.yul\":14883:14886   */\n      dup2\n        /* \"#utility.yul\":14875:14886   */\n      swap1\n      pop\n        /* \"#utility.yul\":14906:14909   */\n      dup2\n        /* \"#utility.yul\":14903:14904   */\n      0x00\n        /* \"#utility.yul\":14896:14910   */\n      mstore\n        /* \"#utility.yul\":14940:14944   */\n      0x20\n        /* \"#utility.yul\":14937:14938   */\n      0x00\n        /* \"#utility.yul\":14927:14945   */\n      keccak256\n        /* \"#utility.yul\":14919:14945   */\n      swap1\n      pop\n        /* \"#utility.yul\":14812:14952   */\n      swap2\n      swap1\n      pop\n      jump\t// out\n        /* \"#utility.yul\":14958:15051   */\n    tag_112:\n        /* \"#utility.yul\":14995:15001   */\n      0x00\n        /* \"#utility.yul\":15042:15044   */\n      0x20\n        /* \"#utility.yul\":15037:15039   */\n      0x1f\n        /* \"#utility.yul\":15030:15035   */\n      dup4\n        /* \"#utility.yul\":15026:15040   */\n      add\n        /* \"#utility.yul\":15022:15045   */\n      div\n        /* \"#utility.yul\":15012:15045   */\n      swap1\n      pop\n        /* \"#utility.yul\":14958:15051   */\n      swap2\n      swap1\n      pop\n      jump\t// out\n        /* \"#utility.yul\":15057:15164   */\n    tag_113:\n        /* \"#utility.yul\":15101:15109   */\n      0x00\n        /* \"#utility.yul\":15151:15156   */\n      dup3\n        /* \"#utility.yul\":15145:15149   */\n      dup3\n        /* \"#utility.yul\":15141:15157   */\n      shl\n        /* \"#utility.yul\":15120:15157   */\n      swap1\n      pop\n        /* \"#utility.yul\":15057:15164   */\n      swap3\n      swap2\n      pop\n      pop\n      jump\t// out\n        /* \"#utility.yul\":15170:15563   */\n    tag_114:\n        /* \"#utility.yul\":15239:15245   */\n      0x00\n        /* \"#utility.yul\":15289:15290   */\n      0x08\n        /* \"#utility.yul\":15277:15287   */\n      dup4\n        /* \"#utility.yul\":15273:15291   */\n      mul\n        /* \"#utility.yul\":15312:15409   */\n      tag_290\n        /* \"#utility.yul\":15342:15408   */\n      0xffffffffffffffffffffffffffffffffffffffffffffffffffffffffffffffff\n        /* \"#utility.yul\":15331:15340   */\n      dup3\n        /* \"#utility.yul\":15312:15409   */\n      tag_113\n      jump\t// in\n    tag_290:\n        /* \"#utility.yul\":15430:15469   */\n      tag_291\n        /* \"#utility.yul\":15460:15468   */\n      dup7\n        /* \"#utility.yul\":15449:15458   */\n      dup4\n        /* \"#utility.yul\":15430:15469   */\n      tag_113\n      jump\t// in\n    tag_291:\n        /* \"#utility.yul\":15418:15469   */\n      swap6\n      pop\n        /* \"#utility.yul\":15502:15506   */\n      dup1\n        /* \"#utility.yul\":15498:15507   */\n      not\n        /* \"#utility.yul\":15491:15496   */\n      dup5\n        /* \"#utility.yul\":15487:15508   */\n      and\n        /* \"#utility.yul\":15478:15508   */\n      swap4\n      pop\n        /* \"#utility.yul\":15551:15555   */\n      dup1\n        /* \"#utility.yul\":15541:15549   */\n      dup7\n        /* \"#utility.yul\":15537:15556   */\n      and\n        /* \"#utility.yul\":15530:15535   */\n      dup5\n        /* \"#utility.yul\":15527:15557   */\n      or\n        /* \"#utility.yul\":15517:15557   */\n      swap3\n      pop\n        /* \"#utility.yul\":15246:15563   */\n      pop\n      pop\n        /* \"#utility.yul\":15170:15563   */\n      swap4\n      swap3\n      pop\n      pop\n      pop\n      jump\t// out\n        /* \"#utility.yul\":15569:15629   */\n    tag_115:\n        /* \"#utility.yul\":15597:15600   */\n      0x00\n        /* \"#utility.yul\":15618:15623   */\n      dup2\n        /* \"#utility.yul\":15611:15623   */\n      swap1\n      pop\n        /* \"#utility.yul\":15569:15629   */\n      swap2\n      swap1\n      pop\n      jump\t// out\n        /* \"#utility.yul\":15635:15777   */\n    tag_116:\n        /* \"#utility.yul\":15685:15694   */\n      0x00\n        /* \"#utility.yul\":15718:15771   */\n      tag_294\n        /* \"#utility.yul\":15736:15770   */\n      tag_295\n        /* \"#utility.yul\":15745:15769   */\n      tag_296\n        /* \"#utility.yul\":15763:15768   */\n      dup5\n        /* \"#utility.yul\":15745:15769   */\n      tag_68\n      jump\t// in\n    tag_296:\n        /* \"#utility.yul\":15736:15770   */\n      tag_115\n      jump\t// in\n    tag_295:\n        /* \"#utility.yul\":15718:15771   */\n      tag_68\n      jump\t// in\n    tag_294:\n        /* \"#utility.yul\":15705:15771   */\n      swap1\n      pop\n        /* \"#utility.yul\":15635:15777   */\n      swap2\n      swap1\n      pop\n      jump\t// out\n        /* \"#utility.yul\":15783:15858   */\n    tag_117:\n        /* \"#utility.yul\":15826:15829   */\n      0x00\n        /* \"#utility.yul\":15847:15852   */\n      dup2\n        /* \"#utility.yul\":15840:15852   */\n      swap1\n      pop\n        /* \"#utility.yul\":15783:15858   */\n      swap2\n      swap1\n      pop\n      jump\t// out\n        /* \"#utility.yul\":15864:16133   */\n    tag_118:\n        /* \"#utility.yul\":15974:16013   */\n      tag_299\n        /* \"#utility.yul\":16005:16012   */\n      dup4\n        /* \"#utility.yul\":15974:16013   */\n      tag_116\n      jump\t// in\n    tag_299:\n        /* \"#utility.yul\":16035:16126   */\n      tag_300\n        /* \"#utility.yul\":16084:16125   */\n      tag_301\n        /* \"#utility.yul\":16108:16124   */\n      dup3\n        /* \"#utility.yul\":16084:16125   */\n      tag_117\n      jump\t// in\n    tag_301:\n        /* \"#utility.yul\":16076:16082   */\n      dup5\n        /* \"#utility.yul\":16069:16073   */\n      dup5\n        /* \"#utility.yul\":16063:16074   */\n      sload\n        /* \"#utility.yul\":16035:16126   */\n      tag_114\n      jump\t// in\n    tag_300:\n        /* \"#utility.yul\":16029:16033   */\n      dup3\n        /* \"#utility.yul\":16022:16127   */\n      sstore\n        /* \"#utility.yul\":15940:16133   */\n      pop\n        /* \"#utility.yul\":15864:16133   */\n      pop\n      pop\n      pop\n      jump\t// out\n        /* \"#utility.yul\":16139:16212   */\n    tag_119:\n        /* \"#utility.yul\":16184:16187   */\n      0x00\n        /* \"#utility.yul\":16205:16206   */\n      0x00\n        /* \"#utility.yul\":16198:16206   */\n      swap1\n      pop\n        /* \"#utility.yul\":16139:16212   */\n      swap1\n      jump\t// out\n        /* \"#utility.yul\":16218:16407   */\n    tag_120:\n        /* \"#utility.yul\":16295:16327   */\n      tag_304\n      tag_119\n      jump\t// in\n    tag_304:\n        /* \"#utility.yul\":16336:16401   */\n      tag_305\n        /* \"#utility.yul\":16394:16400   */\n      dup2\n        /* \"#utility.yul\":16386:16392   */\n      dup5\n        /* \"#utility.yul\":16380:16384   */\n      dup5\n        /* \"#utility.yul\":16336:16401   */\n      tag_118\n      jump\t// in\n    tag_305:\n        /* \"#utility.yul\":16271:16407   */\n      pop\n        /* \"#utility.yul\":16218:16407   */\n      pop\n      pop\n      jump\t// out\n        /* \"#utility.yul\":16413:16599   */\n    tag_121:\n        /* \"#utility.yul\":16473:16593   */\n    tag_307:\n        /* \"#utility.yul\":16490:16493   */\n      dup2\n        /* \"#utility.yul\":16483:16488   */\n      dup2\n        /* \"#utility.yul\":16480:16494   */\n      lt\n        /* \"#utility.yul\":16473:16593   */\n      iszero\n      tag_309\n      jumpi\n        /* \"#utility.yul\":16544:16583   */\n      tag_310\n        /* \"#utility.yul\":16581:16582   */\n      0x00\n        /* \"#utility.yul\":16574:16579   */\n      dup3\n        /* \"#utility.yul\":16544:16583   */\n      tag_120\n      jump\t// in\n    tag_310:\n        /* \"#utility.yul\":16517:16518   */\n      0x01\n        /* \"#utility.yul\":16510:16515   */\n      dup2\n        /* \"#utility.yul\":16506:16519   */\n      add\n        /* \"#utility.yul\":16497:16519   */\n      swap1\n      pop\n        /* \"#utility.yul\":16473:16593   */\n      jump(tag_307)\n    tag_309:\n        /* \"#utility.yul\":16413:16599   */\n      pop\n      pop\n      jump\t// out\n        /* \"#utility.yul\":16605:17146   */\n    tag_122:\n        /* \"#utility.yul\":16705:16707   */\n      0x1f\n        /* \"#utility.yul\":16700:16703   */\n      dup3\n        /* \"#utility.yul\":16697:16708   */\n      gt\n        /* \"#utility.yul\":16694:17139   */\n      iszero\n      tag_312\n      jumpi\n        /* \"#utility.yul\":16739:16776   */\n      tag_313\n        /* \"#utility.yul\":16770:16775   */\n      dup2\n        /* \"#utility.yul\":16739:16776   */\n      tag_111\n      jump\t// in\n    tag_313:\n        /* \"#utility.yul\":16822:16851   */\n      tag_314\n        /* \"#utility.yul\":16840:16850   */\n      dup5\n        /* \"#utility.yul\":16822:16851   */\n      tag_112\n      jump\t// in\n    tag_314:\n        /* \"#utility.yul\":16812:16820   */\n      dup2\n        /* \"#utility.yul\":16808:16852   */\n      add\n        /* \"#utility.yul\":17005:17007   */\n      0x20\n        /* \"#utility.yul\":16993:17003   */\n      dup6\n        /* \"#utility.yul\":16990:17008   */\n      lt\n        /* \"#utility.yul\":16987:17036   */\n      iszero\n      tag_315\n      jumpi\n        /* \"#utility.yul\":17026:17034   */\n      dup2\n        /* \"#utility.yul\":17011:17034   */\n      swap1\n      pop\n        /* \"#utility.yul\":16987:17036   */\n    tag_315:\n        /* \"#utility.yul\":17049:17129   */\n      tag_316\n        /* \"#utility.yul\":17105:17127   */\n      tag_317\n        /* \"#utility.yul\":17123:17126   */\n      dup6\n        /* \"#utility.yul\":17105:17127   */\n      tag_112\n      jump\t// in\n    tag_317:\n        /* \"#utility.yul\":17095:17103   */\n      dup4\n        /* \"#utility.yul\":17091:17128   */\n      add\n        /* \"#utility.yul\":17078:17089   */\n      dup3\n        /* \"#utility.yul\":17049:17129   */\n      tag_121\n      jump\t// in\n    tag_316:\n        /* \"#utility.yul\":16709:17139   */\n      pop\n      pop\n        /* \"#utility.yul\":16694:17139   */\n    tag_312:\n        /* \"#utility.yul\":16605:17146   */\n      pop\n      pop\n      pop\n      jump\t// out\n        /* \"#utility.yul\":17152:17269   */\n    tag_123:\n        /* \"#utility.yul\":17206:17214   */\n      0x00\n        /* \"#utility.yul\":17256:17261   */\n      dup3\n        /* \"#utility.yul\":17250:17254   */\n      dup3\n        /* \"#utility.yul\":17246:17262   */\n      shr\n        /* \"#utility.yul\":17225:17262   */\n      swap1\n      pop\n        /* \"#utility.yul\":17152:17269   */\n      swap3\n      swap2\n      pop\n      pop\n      jump\t// out\n        /* \"#utility.yul\":17275:17444   */\n    tag_124:\n        /* \"#utility.yul\":17319:17325   */\n      0x00\n        /* \"#utility.yul\":17352:17403   */\n      tag_320\n        /* \"#utility.yul\":17400:17401   */\n      0x00\n        /* \"#utility.yul\":17396:17402   */\n      not\n        /* \"#utility.yul\":17388:17393   */\n      dup5\n        /* \"#utility.yul\":17385:17386   */\n      0x08\n        /* \"#utility.yul\":17381:17394   */\n      mul\n        /* \"#utility.yul\":17352:17403   */\n      tag_123\n      jump\t// in\n    tag_320:\n        /* \"#utility.yul\":17348:17404   */\n      not\n        /* \"#utility.yul\":17433:17437   */\n      dup1\n        /* \"#utility.yul\":17427:17431   */\n      dup4\n        /* \"#utility.yul\":17423:17438   */\n      and\n        /* \"#utility.yul\":17413:17438   */\n      swap2\n      pop\n        /* \"#utility.yul\":17326:17444   */\n      pop\n        /* \"#utility.yul\":17275:17444   */\n      swap3\n      swap2\n      pop\n      pop\n      jump\t// out\n        /* \"#utility.yul\":17449:17744   */\n    tag_125:\n        /* \"#utility.yul\":17525:17529   */\n      0x00\n        /* \"#utility.yul\":17671:17700   */\n      tag_322\n        /* \"#utility.yul\":17696:17699   */\n      dup4\n        /* \"#utility.yul\":17690:17694   */\n      dup4\n        /* \"#utility.yul\":17671:17700   */\n      tag_124\n      jump\t// in\n    tag_322:\n        /* \"#utility.yul\":17663:17700   */\n      swap2\n      pop\n        /* \"#utility.yul\":17733:17736   */\n      dup3\n        /* \"#utility.yul\":17730:17731   */\n      0x02\n        /* \"#utility.yul\":17726:17737   */\n      mul\n        /* \"#utility.yul\":17720:17724   */\n      dup3\n        /* \"#utility.yul\":17717:17738   */\n      or\n        /* \"#utility.yul\":17709:17738   */\n      swap1\n      pop\n        /* \"#utility.yul\":17449:17744   */\n      swap3\n      swap2\n      pop\n      pop\n      jump\t// out\n        /* \"#utility.yul\":17749:19139   */\n    tag_58:\n        /* \"#utility.yul\":17864:17900   */\n      tag_324\n        /* \"#utility.yul\":17896:17899   */\n      dup3\n        /* \"#utility.yul\":17864:17900   */\n      tag_75\n      jump\t// in\n    tag_324:\n        /* \"#utility.yul\":17965:17983   */\n      0xffffffffffffffff\n        /* \"#utility.yul\":17957:17963   */\n      dup2\n        /* \"#utility.yul\":17954:17984   */\n      gt\n        /* \"#utility.yul\":17951:18007   */\n      iszero\n      tag_325\n      jumpi\n        /* \"#utility.yul\":17987:18005   */\n      tag_326\n      tag_89\n      jump\t// in\n    tag_326:\n        /* \"#utility.yul\":17951:18007   */\n    tag_325:\n        /* \"#utility.yul\":18031:18069   */\n      tag_327\n        /* \"#utility.yul\":18063:18067   */\n      dup3\n        /* \"#utility.yul\":18057:18068   */\n      sload\n        /* \"#utility.yul\":18031:18069   */\n      tag_28\n      jump\t// in\n    tag_327:\n        /* \"#utility.yul\":18116:18182   */\n      tag_328\n        /* \"#utility.yul\":18175:18181   */\n      dup3\n        /* \"#utility.yul\":18167:18173   */\n      dup3\n        /* \"#utility.yul\":18161:18165   */\n      dup6\n        /* \"#utility.yul\":18116:18182   */\n      tag_122\n      jump\t// in\n    tag_328:\n        /* \"#utility.yul\":18209:18210   */\n      0x00\n        /* \"#utility.yul\":18233:18237   */\n      0x20\n        /* \"#utility.yul\":18220:18237   */\n      swap1\n      pop\n        /* \"#utility.yul\":18265:18267   */\n      0x1f\n        /* \"#utility.yul\":18257:18263   */\n      dup4\n        /* \"#utility.yul\":18254:18268   */\n      gt\n        /* \"#utility.yul\":18282:18283   */\n      0x01\n        /* \"#utility.yul\":18277:18894   */\n      dup2\n      eq\n      tag_330\n      jumpi\n        /* \"#utility.yul\":18938:18939   */\n      0x00\n        /* \"#utility.yul\":18955:18961   */\n      dup5\n        /* \"#utility.yul\":18952:19029   */\n      iszero\n      tag_331\n      jumpi\n        /* \"#utility.yul\":19004:19013   */\n      dup3\n        /* \"#utility.yul\":18999:19002   */\n      dup8\n        /* \"#utility.yul\":18995:19014   */\n      add\n        /* \"#utility.yul\":18989:19015   */\n      mload\n        /* \"#utility.yul\":18980:19015   */\n      swap1\n      pop\n        /* \"#utility.yul\":18952:19029   */\n    tag_331:\n        /* \"#utility.yul\":19055:19122   */\n      tag_332\n        /* \"#utility.yul\":19115:19121   */\n      dup6\n        /* \"#utility.yul\":19108:19113   */\n      dup3\n        /* \"#utility.yul\":19055:19122   */\n      tag_125\n      jump\t// in\n    tag_332:\n        /* \"#utility.yul\":19049:19053   */\n      dup7\n        /* \"#utility.yul\":19042:19123   */\n      sstore\n        /* \"#utility.yul\":18911:19133   */\n      pop\n        /* \"#utility.yul\":18247:19133   */\n      jump(tag_329)\n        /* \"#utility.yul\":18277:18894   */\n    tag_330:\n        /* \"#utility.yul\":18329:18333   */\n      0x1f\n        /* \"#utility.yul\":18325:18334   */\n      not\n        /* \"#utility.yul\":18317:18323   */\n      dup5\n        /* \"#utility.yul\":18313:18335   */\n      and\n        /* \"#utility.yul\":18363:18399   */\n      tag_333\n        /* \"#utility.yul\":18394:18398   */\n      dup7\n        /* \"#utility.yul\":18363:18399   */\n      tag_111\n      jump\t// in\n    tag_333:\n        /* \"#utility.yul\":18421:18422   */\n      0x00\n        /* \"#utility.yul\":18435:18643   */\n    tag_334:\n        /* \"#utility.yul\":18449:18456   */\n      dup3\n        /* \"#utility.yul\":18446:18447   */\n      dup2\n        /* \"#utility.yul\":18443:18457   */\n      lt\n        /* \"#utility.yul\":18435:18643   */\n      iszero\n      tag_336\n      jumpi\n        /* \"#utility.yul\":18528:18537   */\n      dup5\n        /* \"#utility.yul\":18523:18526   */\n      dup10\n        /* \"#utility.yul\":18519:18538   */\n      add\n        /* \"#utility.yul\":18513:18539   */\n      mload\n        /* \"#utility.yul\":18505:18511   */\n      dup3\n        /* \"#utility.yul\":18498:18540   */\n      sstore\n        /* \"#utility.yul\":18579:18580   */\n      0x01\n        /* \"#utility.yul\":18571:18577   */\n      dup3\n        /* \"#utility.yul\":18567:18581   */\n      add\n        /* \"#utility.yul\":18557:18581   */\n      swap2\n      pop\n        /* \"#utility.yul\":18626:18628   */\n      0x20\n        /* \"#utility.yul\":18615:18624   */\n      dup6\n        /* \"#utility.yul\":18611:18629   */\n      add\n        /* \"#utility.yul\":18598:18629   */\n      swap5\n      pop\n        /* \"#utility.yul\":18472:18476   */\n      0x20\n        /* \"#utility.yul\":18469:18470   */\n      dup2\n        /* \"#utility.yul\":18465:18477   */\n      add\n        /* \"#utility.yul\":18460:18477   */\n      swap1\n      pop\n        /* \"#utility.yul\":18435:18643   */\n      jump(tag_334)\n    tag_336:\n        /* \"#utility.yul\":18671:18677   */\n      dup7\n        /* \"#utility.yul\":18662:18669   */\n      dup4\n        /* \"#utility.yul\":18659:18678   */\n      lt\n        /* \"#utility.yul\":18656:18835   */\n      iszero\n      tag_337\n      jumpi\n        /* \"#utility.yul\":18729:18738   */\n      dup5\n        /* \"#utility.yul\":18724:18727   */\n      dup10\n        /* \"#utility.yul\":18720:18739   */\n      add\n        /* \"#utility.yul\":18714:18740   */\n      mload\n        /* \"#utility.yul\":18772:18820   */\n      tag_338\n        /* \"#utility.yul\":18814:18818   */\n      0x1f\n        /* \"#utility.yul\":18806:18812   */\n      dup10\n        /* \"#utility.yul\":18802:18819   */\n      and\n        /* \"#utility.yul\":18791:18800   */\n      dup3\n        /* \"#utility.yul\":18772:18820   */\n      tag_124\n      jump\t// in\n    tag_338:\n        /* \"#utility.yul\":18764:18770   */\n      dup4\n        /* \"#utility.yul\":18757:18821   */\n      sstore\n        /* \"#utility.yul\":18679:18835   */\n      pop\n        /* \"#utility.yul\":18656:18835   */\n    tag_337:\n        /* \"#utility.yul\":18881:18882   */\n      0x01\n        /* \"#utility.yul\":18877:18878   */\n      0x02\n        /* \"#utility.yul\":18869:18875   */\n      dup9\n        /* \"#utility.yul\":18865:18879   */\n      mul\n        /* \"#utility.yul\":18861:18883   */\n      add\n        /* \"#utility.yul\":18855:18859   */\n      dup9\n        /* \"#utility.yul\":18848:18884   */\n      sstore\n        /* \"#utility.yul\":18284:18894   */\n      pop\n      pop\n      pop\n        /* \"#utility.yul\":18247:19133   */\n    tag_329:\n      pop\n        /* \"#utility.yul\":17839:19139   */\n      pop\n      pop\n      pop\n        /* \"#utility.yul\":17749:19139   */\n      pop\n      pop\n      jump\t// out\n        /* \"#utility.yul\":19145:19286   */\n    tag_126:\n        /* \"#utility.yul\":19194:19198   */\n      0x00\n        /* \"#utility.yul\":19217:19220   */\n      dup2\n        /* \"#utility.yul\":19209:19220   */\n      swap1\n      pop\n        /* \"#utility.yul\":19240:19243   */\n      dup2\n        /* \"#utility.yul\":19237:19238   */\n      0x00\n        /* \"#utility.yul\":19230:19244   */\n      mstore\n        /* \"#utility.yul\":19274:19278   */\n      0x20\n        /* \"#utility.yul\":19271:19272   */\n      0x00\n        /* \"#utility.yul\":19261:19279   */\n      keccak256\n        /* \"#utility.yul\":19253:19279   */\n      swap1\n      pop\n        /* \"#utility.yul\":19145:19286   */\n      swap2\n      swap1\n      pop\n      jump\t// out\n        /* \"#utility.yul\":19292:19835   */\n    tag_127:\n        /* \"#utility.yul\":19393:19395   */\n      0x1f\n        /* \"#utility.yul\":19388:19391   */\n      dup3\n        /* \"#utility.yul\":19385:19396   */\n      gt\n        /* \"#utility.yul\":19382:19828   */\n      iszero\n      tag_341\n      jumpi\n        /* \"#utility.yul\":19427:19465   */\n      tag_342\n        /* \"#utility.yul\":19459:19464   */\n      dup2\n        /* \"#utility.yul\":19427:19465   */\n      tag_126\n      jump\t// in\n    tag_342:\n        /* \"#utility.yul\":19511:19540   */\n      tag_343\n        /* \"#utility.yul\":19529:19539   */\n      dup5\n        /* \"#utility.yul\":19511:19540   */\n      tag_112\n      jump\t// in\n    tag_343:\n        /* \"#utility.yul\":19501:19509   */\n      dup2\n        /* \"#utility.yul\":19497:19541   */\n      add\n        /* \"#utility.yul\":19694:19696   */\n      0x20\n        /* \"#utility.yul\":19682:19692   */\n      dup6\n        /* \"#utility.yul\":19679:19697   */\n      lt\n        /* \"#utility.yul\":19676:19725   */\n      iszero\n      tag_344\n      jumpi\n        /* \"#utility.yul\":19715:19723   */\n      dup2\n        /* \"#utility.yul\":19700:19723   */\n      swap1\n      pop\n        /* \"#utility.yul\":19676:19725   */\n    tag_344:\n        /* \"#utility.yul\":19738:19818   */\n      tag_345\n        /* \"#utility.yul\":19794:19816   */\n      tag_346\n        /* \"#utility.yul\":19812:19815   */\n      dup6\n        /* \"#utility.yul\":19794:19816   */\n      tag_112\n      jump\t// in\n    tag_346:\n        /* \"#utility.yul\":19784:19792   */\n      dup4\n        /* \"#utility.yul\":19780:19817   */\n      add\n        /* \"#utility.yul\":19767:19778   */\n      dup3\n        /* \"#utility.yul\":19738:19818   */\n      tag_121\n      jump\t// in\n    tag_345:\n        /* \"#utility.yul\":19397:19828   */\n      pop\n      pop\n        /* \"#utility.yul\":19382:19828   */\n    tag_341:\n        /* \"#utility.yul\":19292:19835   */\n      pop\n      pop\n      pop\n      jump\t// out\n        /* \"#utility.yul\":19841:21236   */\n    tag_60:\n        /* \"#utility.yul\":19958:19995   */\n      tag_348\n        /* \"#utility.yul\":19991:19994   */\n      dup3\n        /* \"#utility.yul\":19958:19995   */\n      tag_84\n      jump\t// in\n    tag_348:\n        /* \"#utility.yul\":20060:20078   */\n      0xffffffffffffffff\n        /* \"#utility.yul\":20052:20058   */\n      dup2\n        /* \"#utility.yul\":20049:20079   */\n      gt\n        /* \"#utility.yul\":20046:20102   */\n      iszero\n      tag_349\n      jumpi\n        /* \"#utility.yul\":20082:20100   */\n      tag_350\n      tag_89\n      jump\t// in\n    tag_350:\n        /* \"#utility.yul\":20046:20102   */\n    tag_349:\n        /* \"#utility.yul\":20126:20164   */\n      tag_351\n        /* \"#utility.yul\":20158:20162   */\n      dup3\n        /* \"#utility.yul\":20152:20163   */\n      sload\n        /* \"#utility.yul\":20126:20164   */\n      tag_28\n      jump\t// in\n    tag_351:\n        /* \"#utility.yul\":20211:20278   */\n      tag_352\n        /* \"#utility.yul\":20271:20277   */\n      dup3\n        /* \"#utility.yul\":20263:20269   */\n      dup3\n        /* \"#utility.yul\":20257:20261   */\n      dup6\n        /* \"#utility.yul\":20211:20278   */\n      tag_127\n      jump\t// in\n    tag_352:\n        /* \"#utility.yul\":20305:20306   */\n      0x00\n        /* \"#utility.yul\":20329:20333   */\n      0x20\n        /* \"#utility.yul\":20316:20333   */\n      swap1\n      pop\n        /* \"#utility.yul\":20361:20363   */\n      0x1f\n        /* \"#utility.yul\":20353:20359   */\n      dup4\n        /* \"#utility.yul\":20350:20364   */\n      gt\n        /* \"#utility.yul\":20378:20379   */\n      0x01\n        /* \"#utility.yul\":20373:20991   */\n      dup2\n      eq\n      tag_354\n      jumpi\n        /* \"#utility.yul\":21035:21036   */\n      0x00\n        /* \"#utility.yul\":21052:21058   */\n      dup5\n        /* \"#utility.yul\":21049:21126   */\n      iszero\n      tag_355\n      jumpi\n        /* \"#utility.yul\":21101:21110   */\n      dup3\n        /* \"#utility.yul\":21096:21099   */\n      dup8\n        /* \"#utility.yul\":21092:21111   */\n      add\n        /* \"#utility.yul\":21086:21112   */\n      mload\n        /* \"#utility.yul\":21077:21112   */\n      swap1\n      pop\n        /* \"#utility.yul\":21049:21126   */\n    tag_355:\n        /* \"#utility.yul\":21152:21219   */\n      tag_356\n        /* \"#utility.yul\":21212:21218   */\n      dup6\n        /* \"#utility.yul\":21205:21210   */\n      dup3\n        /* \"#utility.yul\":21152:21219   */\n      tag_125\n      jump\t// in\n    tag_356:\n        /* \"#utility.yul\":21146:21150   */\n      dup7\n        /* \"#utility.yul\":21139:21220   */\n      sstore\n        /* \"#utility.yul\":21008:21230   */\n      pop\n        /* \"#utility.yul\":20343:21230   */\n      jump(tag_353)\n        /* \"#utility.yul\":20373:20991   */\n    tag_354:\n        /* \"#utility.yul\":20425:20429   */\n      0x1f\n        /* \"#utility.yul\":20421:20430   */\n      not\n        /* \"#utility.yul\":20413:20419   */\n      dup5\n        /* \"#utility.yul\":20409:20431   */\n      and\n        /* \"#utility.yul\":20459:20496   */\n      tag_357\n        /* \"#utility.yul\":20491:20495   */\n      dup7\n        /* \"#utility.yul\":20459:20496   */\n      tag_126\n      jump\t// in\n    tag_357:\n        /* \"#utility.yul\":20518:20519   */\n      0x00\n        /* \"#utility.yul\":20532:20740   */\n    tag_358:\n        /* \"#utility.yul\":20546:20553   */\n      dup3\n        /* \"#utility.yul\":20543:20544   */\n      dup2\n        /* \"#utility.yul\":20540:20554   */\n      lt\n        /* \"#utility.yul\":20532:20740   */\n      iszero\n      tag_360\n      jumpi\n        /* \"#utility.yul\":20625:20634   */\n      dup5\n        /* \"#utility.yul\":20620:20623   */\n      dup10\n        /* \"#utility.yul\":20616:20635   */\n      add\n        /* \"#utility.yul\":20610:20636   */\n      mload\n        /* \"#utility.yul\":20602:20608   */\n      dup3\n        /* \"#utility.yul\":20595:20637   */\n      sstore\n        /* \"#utility.yul\":20676:20677   */\n      0x01\n        /* \"#utility.yul\":20668:20674   */\n      dup3\n        /* \"#utility.yul\":20664:20678   */\n      add\n        /* \"#utility.yul\":20654:20678   */\n      swap2\n      pop\n        /* \"#utility.yul\":20723:20725   */\n      0x20\n        /* \"#utility.yul\":20712:20721   */\n      dup6\n        /* \"#utility.yul\":20708:20726   */\n      add\n        /* \"#utility.yul\":20695:20726   */\n      swap5\n      pop\n        /* \"#utility.yul\":20569:20573   */\n      0x20\n        /* \"#utility.yul\":20566:20567   */\n      dup2\n        /* \"#utility.yul\":20562:20574   */\n      add\n        /* \"#utility.yul\":20557:20574   */\n      swap1\n      pop\n        /* \"#utility.yul\":20532:20740   */\n      jump(tag_358)\n    tag_360:\n        /* \"#utility.yul\":20768:20774   */\n      dup7\n        /* \"#utility.yul\":20759:20766   */\n      dup4\n        /* \"#utility.yul\":20756:20775   */\n      lt\n        /* \"#utility.yul\":20753:20932   */\n      iszero\n      tag_361\n      jumpi\n        /* \"#utility.yul\":20826:20835   */\n      dup5\n        /* \"#utility.yul\":20821:20824   */\n      dup10\n        /* \"#utility.yul\":20817:20836   */\n      add\n        /* \"#utility.yul\":20811:20837   */\n      mload\n        /* \"#utility.yul\":20869:20917   */\n      tag_362\n        /* \"#utility.yul\":20911:20915   */\n      0x1f\n        /* \"#utility.yul\":20903:20909   */\n      dup10\n        /* \"#utility.yul\":20899:20916   */\n      and\n        /* \"#utility.yul\":20888:20897   */\n      dup3\n        /* \"#utility.yul\":20869:20917   */\n      tag_124\n      jump\t// in\n    tag_362:\n        /* \"#utility.yul\":20861:20867   */\n      dup4\n        /* \"#utility.yul\":20854:20918   */\n      sstore\n        /* \"#utility.yul\":20776:20932   */\n      pop\n        /* \"#utility.yul\":20753:20932   */\n    tag_361:\n        /* \"#utility.yul\":20978:20979   */\n      0x01\n        /* \"#utility.yul\":20974:20975   */\n      0x02\n        /* \"#utility.yul\":20966:20972   */\n      dup9\n        /* \"#utility.yul\":20962:20976   */\n      mul\n        /* \"#utility.yul\":20958:20980   */\n      add\n        /* \"#utility.yul\":20952:20956   */\n      dup9\n        /* \"#utility.yul\":20945:20981   */\n      sstore\n        /* \"#utility.yul\":20380:20991   */\n      pop\n      pop\n      pop\n        /* \"#utility.yul\":20343:21230   */\n    tag_353:\n      pop\n        /* \"#utility.yul\":19933:21236   */\n      pop\n      pop\n      pop\n        /* \"#utility.yul\":19841:21236   */\n      pop\n      pop\n      jump\t// out\n        /* \"#utility.yul\":21242:22698   */\n    tag_64:\n        /* \"#utility.yul\":21631:21635   */\n      0x00\n        /* \"#utility.yul\":21669:21672   */\n      0x0120\n        /* \"#utility.yul\":21658:21667   */\n      dup3\n        /* \"#utility.yul\":21654:21673   */\n      add\n        /* \"#utility.yul\":21646:21673   */\n      swap1\n      pop\n        /* \"#utility.yul\":21719:21728   */\n      dup2\n        /* \"#utility.yul\":21713:21717   */\n      dup2\n        /* \"#utility.yul\":21709:21729   */\n      sub\n        /* \"#utility.yul\":21705:21706   */\n      0x00\n        /* \"#utility.yul\":21694:21703   */\n      dup4\n        /* \"#utility.yul\":21690:21707   */\n      add\n        /* \"#utility.yul\":21683:21730   */\n      mstore\n        /* \"#utility.yul\":21747:21823   */\n      tag_364\n        /* \"#utility.yul\":21818:21822   */\n      dup2\n        /* \"#utility.yul\":21809:21815   */\n      dup13\n        /* \"#utility.yul\":21747:21823   */\n      tag_79\n      jump\t// in\n    tag_364:\n        /* \"#utility.yul\":21739:21823   */\n      swap1\n      pop\n        /* \"#utility.yul\":21833:21905   */\n      tag_365\n        /* \"#utility.yul\":21901:21903   */\n      0x20\n        /* \"#utility.yul\":21890:21899   */\n      dup4\n        /* \"#utility.yul\":21886:21904   */\n      add\n        /* \"#utility.yul\":21877:21883   */\n      dup12\n        /* \"#utility.yul\":21833:21905   */\n      tag_81\n      jump\t// in\n    tag_365:\n        /* \"#utility.yul\":21915:21987   */\n      tag_366\n        /* \"#utility.yul\":21983:21985   */\n      0x40\n        /* \"#utility.yul\":21972:21981   */\n      dup4\n        /* \"#utility.yul\":21968:21986   */\n      add\n        /* \"#utility.yul\":21959:21965   */\n      dup11\n        /* \"#utility.yul\":21915:21987   */\n      tag_81\n      jump\t// in\n    tag_366:\n        /* \"#utility.yul\":21997:22069   */\n      tag_367\n        /* \"#utility.yul\":22065:22067   */\n      0x60\n        /* \"#utility.yul\":22054:22063   */\n      dup4\n        /* \"#utility.yul\":22050:22068   */\n      add\n        /* \"#utility.yul\":22041:22047   */\n      dup10\n        /* \"#utility.yul\":21997:22069   */\n      tag_71\n      jump\t// in\n    tag_367:\n        /* \"#utility.yul\":22079:22152   */\n      tag_368\n        /* \"#utility.yul\":22147:22150   */\n      0x80\n        /* \"#utility.yul\":22136:22145   */\n      dup4\n        /* \"#utility.yul\":22132:22151   */\n      add\n        /* \"#utility.yul\":22123:22129   */\n      dup9\n        /* \"#utility.yul\":22079:22152   */\n      tag_71\n      jump\t// in\n    tag_368:\n        /* \"#utility.yul\":22162:22229   */\n      tag_369\n        /* \"#utility.yul\":22224:22227   */\n      0xa0\n        /* \"#utility.yul\":22213:22222   */\n      dup4\n        /* \"#utility.yul\":22209:22228   */\n      add\n        /* \"#utility.yul\":22200:22206   */\n      dup8\n        /* \"#utility.yul\":22162:22229   */\n      tag_83\n      jump\t// in\n    tag_369:\n        /* \"#utility.yul\":22277:22286   */\n      dup2\n        /* \"#utility.yul\":22271:22275   */\n      dup2\n        /* \"#utility.yul\":22267:22287   */\n      sub\n        /* \"#utility.yul\":22261:22264   */\n      0xc0\n        /* \"#utility.yul\":22250:22259   */\n      dup4\n        /* \"#utility.yul\":22246:22265   */\n      add\n        /* \"#utility.yul\":22239:22288   */\n      mstore\n        /* \"#utility.yul\":22305:22383   */\n      tag_370\n        /* \"#utility.yul\":22378:22382   */\n      dup2\n        /* \"#utility.yul\":22369:22375   */\n      dup7\n        /* \"#utility.yul\":22305:22383   */\n      tag_86\n      jump\t// in\n    tag_370:\n        /* \"#utility.yul\":22297:22383   */\n      swap1\n      pop\n        /* \"#utility.yul\":22431:22440   */\n      dup2\n        /* \"#utility.yul\":22425:22429   */\n      dup2\n        /* \"#utility.yul\":22421:22441   */\n      sub\n        /* \"#utility.yul\":22415:22418   */\n      0xe0\n        /* \"#utility.yul\":22404:22413   */\n      dup4\n        /* \"#utility.yul\":22400:22419   */\n      add\n        /* \"#utility.yul\":22393:22442   */\n      mstore\n        /* \"#utility.yul\":22459:22537   */\n      tag_371\n        /* \"#utility.yul\":22532:22536   */\n      dup2\n        /* \"#utility.yul\":22523:22529   */\n      dup6\n        /* \"#utility.yul\":22459:22537   */\n      tag_86\n      jump\t// in\n    tag_371:\n        /* \"#utility.yul\":22451:22537   */\n      swap1\n      pop\n        /* \"#utility.yul\":22585:22594   */\n      dup2\n        /* \"#utility.yul\":22579:22583   */\n      dup2\n        /* \"#utility.yul\":22575:22595   */\n      sub\n        /* \"#utility.yul\":22569:22572   */\n      0x0100\n        /* \"#utility.yul\":22558:22567   */\n      dup4\n        /* \"#utility.yul\":22554:22573   */\n      add\n        /* \"#utility.yul\":22547:22596   */\n      mstore\n        /* \"#utility.yul\":22613:22691   */\n      tag_372\n        /* \"#utility.yul\":22686:22690   */\n      dup2\n        /* \"#utility.yul\":22677:22683   */\n      dup5\n        /* \"#utility.yul\":22613:22691   */\n      tag_86\n      jump\t// in\n    tag_372:\n        /* \"#utility.yul\":22605:22691   */\n      swap1\n      pop\n        /* \"#utility.yul\":21242:22698   */\n      swap11\n      swap10\n      pop\n      pop\n      pop\n      pop\n      pop\n      pop\n      pop\n      pop\n      pop\n      pop\n      jump\t// out\n\n    auxdata: 0xa264697066735822122058df553c76ad6554e3ae8d1967b264ecb5b5b2c71eeccae518d60ff59111497664736f6c634300081e0033\n}\n",
				"bytecode": {
					"linkReferences": {},
					"object": "6080604052348015600e575f5ffd5b506113038061001c5f395ff3fe608060405234801561000f575f5ffd5b506004361061004a575f3560e01c806303e9e6091461004e57806327505bd21461008857806355438bf6146100a4578063fea68189146100d4575b5f5ffd5b61006860048036038101906100639190610711565b6100f2565b60405161007f9b9a9998979695949392919061087e565b60405180910390f35b6100a2600480360381019061009d9190610b61565b6103bf565b005b6100be60048036038101906100b99190610cbf565b6106b3565b6040516100cb9190610cea565b60405180910390f35b6100dc6106c8565b6040516100e99190610cea565b60405180910390f35b5f5f60605f5f5f5f5f60608060605f60015f8e81526020019081526020015f209050805f0154816001015f9054906101000a900473ffffffffffffffffffffffffffffffffffffffff16826002018360030154846004015485600501548660060154876007015f9054906101000a900460ff1688600801896009018a600a0188805461017d90610d30565b80601f01602080910402602001604051908101604052809291908181526020018280546101a990610d30565b80156101f45780601f106101cb576101008083540402835291602001916101f4565b820191905f5260205f20905b8154815290600101906020018083116101d757829003601f168201915b5050505050985082805461020790610d30565b80601f016020809104026020016040519081016040528092919081815260200182805461023390610d30565b801561027e5780601f106102555761010080835404028352916020019161027e565b820191905f5260205f20905b81548152906001019060200180831161026157829003601f168201915b5050505050925081805461029190610d30565b80601f01602080910402602001604051908101604052809291908181526020018280546102bd90610d30565b80156103085780601f106102df57610100808354040283529160200191610308565b820191905f5260205f20905b8154815290600101906020018083116102eb57829003601f168201915b5050505050915080805461031b90610d30565b80601f016020809104026020016040519081016040528092919081815260200182805461034790610d30565b80156103925780601f1061036957610100808354040283529160200191610392565b820191905f5260205f20905b81548152906001019060200180831161037557829003601f168201915b505050505090509b509b509b509b509b509b509b509b509b509b509b505091939597999b90929496989a50565b60025f3373ffffffffffffffffffffffffffffffffffffffff1673ffffffffffffffffffffffffffffffffffffffff1681526020019081526020015f2054861161043e576040517f08c379a000000000000000000000000000000000000000000000000000000000815260040161043590610daa565b60405180910390fd5b87898051906020012014610487576040517f08c379a000000000000000000000000000000000000000000000000000000000815260040161047e90610e12565b60405180910390fd5b5f60015f546104969190610e5d565b9050805f819055506040518061016001604052808281526020013373ffffffffffffffffffffffffffffffffffffffff1681526020018b81526020018a815260200189815260200188815260200187815260200186151581526020018581526020018481526020018381525060015f8381526020019081526020015f205f820151815f01556020820151816001015f6101000a81548173ffffffffffffffffffffffffffffffffffffffff021916908373ffffffffffffffffffffffffffffffffffffffff16021790555060408201518160020190816105769190611030565b50606082015181600301556080820151816004015560a0820151816005015560c0820151816006015560e0820151816007015f6101000a81548160ff0219169083151502179055506101008201518160080190816105d49190611157565b506101208201518160090190816105eb9190611157565b5061014082015181600a0190816106029190611157565b509050508660025f3373ffffffffffffffffffffffffffffffffffffffff1673ffffffffffffffffffffffffffffffffffffffff1681526020019081526020015f20819055503373ffffffffffffffffffffffffffffffffffffffff16817f4d5e4ccfb7a9ada5002fd91149529bce9d9390d6fe55f36ed54d89abf9577e638c8c8c8c8c8c8c8c8c60405161069f99989796959493929190611226565b60405180910390a350505050505050505050565b6002602052805f5260405f205f915090505481565b5f5481565b5f604051905090565b5f5ffd5b5f5ffd5b5f819050919050565b6106f0816106de565b81146106fa575f5ffd5b50565b5f8135905061070b816106e7565b92915050565b5f60208284031215610726576107256106d6565b5b5f610733848285016106fd565b91505092915050565b610745816106de565b82525050565b5f73ffffffffffffffffffffffffffffffffffffffff82169050919050565b5f6107748261074b565b9050919050565b6107848161076a565b82525050565b5f81519050919050565b5f82825260208201905092915050565b8281835e5f83830152505050565b5f601f19601f8301169050919050565b5f6107cc8261078a565b6107d68185610794565b93506107e68185602086016107a4565b6107ef816107b2565b840191505092915050565b5f819050919050565b61080c816107fa565b82525050565b5f8115159050919050565b61082681610812565b82525050565b5f81519050919050565b5f82825260208201905092915050565b5f6108508261082c565b61085a8185610836565b935061086a8185602086016107a4565b610873816107b2565b840191505092915050565b5f610160820190506108925f83018e61073c565b61089f602083018d61077b565b81810360408301526108b1818c6107c2565b90506108c0606083018b610803565b6108cd608083018a610803565b6108da60a083018961073c565b6108e760c083018861073c565b6108f460e083018761081d565b8181036101008301526109078186610846565b905081810361012083015261091c8185610846565b90508181036101408301526109318184610846565b90509c9b505050505050505050505050565b5f5ffd5b5f5ffd5b7f4e487b71000000000000000000000000000000000000000000000000000000005f52604160045260245ffd5b610981826107b2565b810181811067ffffffffffffffff821117156109a05761099f61094b565b5b80604052505050565b5f6109b26106cd565b90506109be8282610978565b919050565b5f67ffffffffffffffff8211156109dd576109dc61094b565b5b6109e6826107b2565b9050602081019050919050565b828183375f83830152505050565b5f610a13610a0e846109c3565b6109a9565b905082815260208101848484011115610a2f57610a2e610947565b5b610a3a8482856109f3565b509392505050565b5f82601f830112610a5657610a55610943565b5b8135610a66848260208601610a01565b91505092915050565b610a78816107fa565b8114610a82575f5ffd5b50565b5f81359050610a9381610a6f565b92915050565b610aa281610812565b8114610aac575f5ffd5b50565b5f81359050610abd81610a99565b92915050565b5f67ffffffffffffffff821115610add57610adc61094b565b5b610ae6826107b2565b9050602081019050919050565b5f610b05610b0084610ac3565b6109a9565b905082815260208101848484011115610b2157610b20610947565b5b610b2c8482856109f3565b509392505050565b5f82601f830112610b4857610b47610943565b5b8135610b58848260208601610af3565b91505092915050565b5f5f5f5f5f5f5f5f5f6101208a8c031215610b7f57610b7e6106d6565b5b5f8a013567ffffffffffffffff811115610b9c57610b9b6106da565b5b610ba88c828d01610a42565b9950506020610bb98c828d01610a85565b9850506040610bca8c828d01610a85565b9750506060610bdb8c828d016106fd565b9650506080610bec8c828d016106fd565b95505060a0610bfd8c828d01610aaf565b94505060c08a013567ffffffffffffffff811115610c1e57610c1d6106da565b5b610c2a8c828d01610b34565b93505060e08a013567ffffffffffffffff811115610c4b57610c4a6106da565b5b610c578c828d01610b34565b9250506101008a013567ffffffffffffffff811115610c7957610c786106da565b5b610c858c828d01610b34565b9150509295985092959850929598565b610c9e8161076a565b8114610ca8575f5ffd5b50565b5f81359050610cb981610c95565b92915050565b5f60208284031215610cd457610cd36106d6565b5b5f610ce184828501610cab565b91505092915050565b5f602082019050610cfd5f83018461073c565b92915050565b7f4e487b71000000000000000000000000000000000000000000000000000000005f52602260045260245ffd5b5f6002820490506001821680610d4757607f821691505b602082108103610d5a57610d59610d03565b5b50919050565b7f7374616c65206e6f6e63650000000000000000000000000000000000000000005f82015250565b5f610d94600b83610836565b9150610d9f82610d60565b602082019050919050565b5f6020820190508181035f830152610dc181610d88565b9050919050565b7f7061796c6f61642068617368206d69736d6174636800000000000000000000005f82015250565b5f610dfc601583610836565b9150610e0782610dc8565b602082019050919050565b5f6020820190508181035f830152610e2981610df0565b9050919050565b7f4e487b71000000000000000000000000000000000000000000000000000000005f52601160045260245ffd5b5f610e67826106de565b9150610e72836106de565b9250828201905080821115610e8a57610e89610e30565b5b92915050565b5f819050815f5260205f209050919050565b5f6020601f8301049050919050565b5f82821b905092915050565b5f60088302610eec7fffffffffffffffffffffffffffffffffffffffffffffffffffffffffffffffff82610eb1565b610ef68683610eb1565b95508019841693508086168417925050509392505050565b5f819050919050565b5f610f31610f2c610f27846106de565b610f0e565b6106de565b9050919050565b5f819050919050565b610f4a83610f17565b610f5e610f5682610f38565b848454610ebd565b825550505050565b5f5f905090565b610f75610f66565b610f80818484610f41565b505050565b5b81811015610fa357610f985f82610f6d565b600181019050610f86565b5050565b601f821115610fe857610fb981610e90565b610fc284610ea2565b81016020851015610fd1578190505b610fe5610fdd85610ea2565b830182610f85565b50505b505050565b5f82821c905092915050565b5f6110085f1984600802610fed565b1980831691505092915050565b5f6110208383610ff9565b9150826002028217905092915050565b6110398261078a565b67ffffffffffffffff8111156110525761105161094b565b5b61105c8254610d30565b611067828285610fa7565b5f60209050601f831160018114611098575f8415611086578287015190505b6110908582611015565b8655506110f7565b601f1984166110a686610e90565b5f5b828110156110cd578489015182556001820191506020850194506020810190506110a8565b868310156110ea57848901516110e6601f891682610ff9565b8355505b6001600288020188555050505b505050505050565b5f819050815f5260205f209050919050565b601f82111561115257611123816110ff565b61112c84610ea2565b8101602085101561113b578190505b61114f61114785610ea2565b830182610f85565b50505b505050565b6111608261082c565b67ffffffffffffffff8111156111795761117861094b565b5b6111838254610d30565b61118e828285611111565b5f60209050601f8311600181146111bf575f84156111ad578287015190505b6111b78582611015565b86555061121e565b601f1984166111cd866110ff565b5f5b828110156111f4578489015182556001820191506020850194506020810190506111cf565b86831015611211578489015161120d601f891682610ff9565b8355505b6001600288020188555050505b505050505050565b5f610120820190508181035f83015261123f818c6107c2565b905061124e602083018b610803565b61125b604083018a610803565b611268606083018961073c565b611275608083018861073c565b61128260a083018761081d565b81810360c08301526112948186610846565b905081810360e08301526112a88185610846565b90508181036101008301526112bd8184610846565b90509a995050505050505050505056fea264697066735822122058df553c76ad6554e3ae8d1967b264ecb5b5b2c71eeccae518d60ff59111497664736f6c634300081e0033",
					"opcodes": "PUSH1 0x80 PUSH1 0x40 MSTORE CALLVALUE DUP1 ISZERO PUSH1 0xE JUMPI PUSH0 PUSH0 REVERT JUMPDEST POP PUSH2 0x1303 DUP1 PUSH2 0x1C PUSH0 CODECOPY PUSH0 RETURN INVALID PUSH1 0x80 PUSH1 0x40 MSTORE CALLVALUE DUP1 ISZERO PUSH2 0xF JUMPI PUSH0 PUSH0 REVERT JUMPDEST POP PUSH1 0x4 CALLDATASIZE LT PUSH2 0x4A JUMPI PUSH0 CALLDATALOAD PUSH1 0xE0 SHR DUP1 PUSH4 0x3E9E609 EQ PUSH2 0x4E JUMPI DUP1 PUSH4 0x27505BD2 EQ PUSH2 0x88 JUMPI DUP1 PUSH4 0x55438BF6 EQ PUSH2 0xA4 JUMPI DUP1 PUSH4 0xFEA68189 EQ PUSH2 0xD4 JUMPI JUMPDEST PUSH0 PUSH0 REVERT JUMPDEST PUSH2 0x68 PUSH1 0x4 DUP1 CALLDATASIZE SUB DUP2 ADD SWAP1 PUSH2 0x63 SWAP2 SWAP1 PUSH2 0x711 JUMP JUMPDEST PUSH2 0xF2 JUMP JUMPDEST PUSH1 0x40 MLOAD PUSH2 0x7F SWAP12 SWAP11 SWAP10 SWAP9 SWAP8 SWAP7 SWAP6 SWAP5 SWAP4 SWAP3 SWAP2 SWAP1 PUSH2 0x87E JUMP JUMPDEST PUSH1 0x40 MLOAD DUP1 SWAP2 SUB SWAP1 RETURN JUMPDEST PUSH2 0xA2 PUSH1 0x4 DUP1 CALLDATASIZE SUB DUP2 ADD SWAP1 PUSH2 0x9D SWAP2 SWAP1 PUSH2 0xB61 JUMP JUMPDEST PUSH2 0x3BF JUMP JUMPDEST STOP JUMPDEST PUSH2 0xBE PUSH1 0x4 DUP1 CALLDATASIZE SUB DUP2 ADD SWAP1 PUSH2 0xB9 SWAP2 SWAP1 PUSH2 0xCBF JUMP JUMPDEST PUSH2 0x6B3 JUMP JUMPDEST PUSH1 0x40 MLOAD PUSH2 0xCB SWAP2 SWAP1 PUSH2 0xCEA JUMP JUMPDEST PUSH1 0x40 MLOAD DUP1 SWAP2 SUB SWAP1 RETURN JUMPDEST PUSH2 0xDC PUSH2 0x6C8 JUMP JUMPDEST PUSH1 0x40 MLOAD PUSH2 0xE9 SWAP2 SWAP1 PUSH2 0xCEA JUMP JUMPDEST PUSH1 0x40 MLOAD DUP1 SWAP2 SUB SWAP1 RETURN JUMPDEST PUSH0 PUSH0 PUSH1 0x60 PUSH0 PUSH0 PUSH0 PUSH0 PUSH0 PUSH1 0x60 DUP1 PUSH1 0x60 PUSH0 PUSH1 0x1 PUSH0 DUP15 DUP2 MSTORE PUSH1 0x20 ADD SWAP1 DUP2 MSTORE PUSH1 0x20 ADD PUSH0 KECCAK256 SWAP1 POP DUP1 PUSH0 ADD SLOAD DUP2 PUSH1 0x1 ADD PUSH0 SWAP1 SLOAD SWAP1 PUSH2 0x100 EXP SWAP1 DIV PUSH20 0xFFFFFFFFFFFFFFFFFFFFFFFFFFFFFFFFFFFFFFFF AND DUP3 PUSH1 0x2 ADD DUP4 PUSH1 0x3 ADD SLOAD DUP5 PUSH1 0x4 ADD SLOAD DUP6 PUSH1 0x5 ADD SLOAD DUP7 PUSH1 0x6 ADD SLOAD DUP8 PUSH1 0x7 ADD PUSH0 SWAP1 SLOAD SWAP1 PUSH2 0x100 EXP SWAP1 DIV PUSH1 0xFF AND DUP9 PUSH1 0x8 ADD DUP10 PUSH1 0x9 ADD DUP11 PUSH1 0xA ADD DUP9 DUP1 SLOAD PUSH2 0x17D SWAP1 PUSH2 0xD30 JUMP JUMPDEST DUP1 PUSH1 0x1F ADD PUSH1 0x20 DUP1 SWAP2 DIV MUL PUSH1 0x20 ADD PUSH1 0x40 MLOAD SWAP1 DUP2 ADD PUSH1 0x40 MSTORE DUP1 SWAP3 SWAP2 SWAP1 DUP2 DUP2 MSTORE PUSH1 0x20 ADD DUP3 DUP1 SLOAD PUSH2 0x1A9 SWAP1 PUSH2 0xD30 JUMP JUMPDEST DUP1 ISZERO PUSH2 0x1F4 JUMPI DUP1 PUSH1 0x1F LT PUSH2 0x1CB JUMPI PUSH2 0x100 DUP1 DUP4 SLOAD DIV MUL DUP4 MSTORE SWAP2 PUSH1 0x20 ADD SWAP2 PUSH2 0x1F4 JUMP JUMPDEST DUP3 ADD SWAP2 SWAP1 PUSH0 MSTORE PUSH1 0x20 PUSH0 KECCAK256 SWAP1 JUMPDEST DUP2 SLOAD DUP2 MSTORE SWAP1 PUSH1 0x1 ADD SWAP1 PUSH1 0x20 ADD DUP1 DUP4 GT PUSH2 0x1D7 JUMPI DUP3 SWAP1 SUB PUSH1 0x1F AND DUP3 ADD SWAP2 JUMPDEST POP POP POP POP POP SWAP9 POP DUP3 DUP1 SLOAD PUSH2 0x207 SWAP1 PUSH2 0xD30 JUMP JUMPDEST DUP1 PUSH1 0x1F ADD PUSH1 0x20 DUP1 SWAP2 DIV MUL PUSH1 0x20 ADD PUSH1 0x40 MLOAD SWAP1 DUP2 ADD PUSH1 0x40 MSTORE DUP1 SWAP3 SWAP2 SWAP1 DUP2 DUP2 MSTORE PUSH1 0x20 ADD DUP3 DUP1 SLOAD PUSH2 0x233 SWAP1 PUSH2 0xD30 JUMP JUMPDEST DUP1 ISZERO PUSH2 0x27E JUMPI DUP1 PUSH1 0x1F LT PUSH2 0x255 JUMPI PUSH2 0x100 DUP1 DUP4 SLOAD DIV MUL DUP4 MSTORE SWAP2 PUSH1 0x20 ADD SWAP2 PUSH2 0x27E JUMP JUMPDEST DUP3 ADD SWAP2 SWAP1 PUSH0 MSTORE PUSH1 0x20 PUSH0 KECCAK256 SWAP1 JUMPDEST DUP2 SLOAD DUP2 MSTORE SWAP1 PUSH1 0x1 ADD SWAP1 PUSH1 0x20 ADD DUP1 DUP4 GT PUSH2 0x261 JUMPI DUP3 SWAP1 SUB PUSH1 0x1F AND DUP3 ADD SWAP2 JUMPDEST POP POP POP POP POP SWAP3 POP DUP2 DUP1 SLOAD PUSH2 0x291 SWAP1 PUSH2 0xD30 JUMP JUMPDEST DUP1 PUSH1 0x1F ADD PUSH1 0x20 DUP1 SWAP2 DIV MUL PUSH1 0x20 ADD PUSH1 0x40 MLOAD SWAP1 DUP2 ADD PUSH1 0x40 MSTORE DUP1 SWAP3 SWAP2 SWAP1 DUP2 DUP2 MSTORE PUSH1 0x20 ADD DUP3 DUP1 SLOAD PUSH2 0x2BD SWAP1 PUSH2 0xD30 JUMP JUMPDEST DUP1 ISZERO PUSH2 0x308 JUMPI DUP1 PUSH1 0x1F LT PUSH2 0x2DF JUMPI PUSH2 0x100 DUP1 DUP4 SLOAD DIV MUL DUP4 MSTORE SWAP2 PUSH1 0x20 ADD SWAP2 PUSH2 0x308 JUMP JUMPDEST DUP3 ADD SWAP2 SWAP1 PUSH0 MSTORE PUSH1 0x20 PUSH0 KECCAK256 SWAP1 JUMPDEST DUP2 SLOAD DUP2 MSTORE SWAP1 PUSH1 0x1 ADD SWAP1 PUSH1 0x20 ADD DUP1 DUP4 GT PUSH2 0x2EB JUMPI DUP3 SWAP1 SUB PUSH1 0x1F AND DUP3 ADD SWAP2 JUMPDEST POP POP POP POP POP SWAP2 POP DUP1 DUP1 SLOAD PUSH2 0x31B SWAP1 PUSH2 0xD30 JUMP JUMPDEST DUP1 PUSH1 0x1F ADD PUSH1 0x20 DUP1 SWAP2 DIV MUL PUSH1 0x20 ADD PUSH1 0x40 MLOAD SWAP1 DUP2 ADD PUSH1 0x40 MSTORE DUP1 SWAP3 SWAP2 SWAP1 DUP2 DUP2 MSTORE PUSH1 0x20 ADD DUP3 DUP1 SLOAD PUSH2 0x347 SWAP1 PUSH2 0xD30 JUMP JUMPDEST DUP1 ISZERO PUSH2 0x392 JUMPI DUP1 PUSH1 0x1F LT PUSH2 0x369 JUMPI PUSH2 0x100 DUP1 DUP4 SLOAD DIV MUL DUP4 MSTORE SWAP2 PUSH1 0x20 ADD SWAP2 PUSH2 0x392 JUMP JUMPDEST DUP3 ADD SWAP2 SWAP1 PUSH0 MSTORE PUSH1 0x20 PUSH0 KECCAK256 SWAP1 JUMPDEST DUP2 SLOAD DUP2 MSTORE SWAP1 PUSH1 0x1 ADD SWAP1 PUSH1 0x20 ADD DUP1 DUP4 GT PUSH2 0x375 JUMPI DUP3 SWAP1 SUB PUSH1 0x1F AND DUP3 ADD SWAP2 JUMPDEST POP POP POP POP POP SWAP1 POP SWAP12 POP SWAP12 POP SWAP12 POP SWAP12 POP SWAP12 POP SWAP12 POP SWAP12 POP SWAP12 POP SWAP12 POP SWAP12 POP SWAP12 POP POP SWAP2 SWAP4 SWAP6 SWAP8 SWAP10 SWAP12 SWAP1 SWAP3 SWAP5 SWAP7 SWAP9 SWAP11 POP JUMP JUMPDEST PUSH1 0x2 PUSH0 CALLER PUSH20 0xFFFFFFFFFFFFFFFFFFFFFFFFFFFFFFFFFFFFFFFF AND PUSH20 0xFFFFFFFFFFFFFFFFFFFFFFFFFFFFFFFFFFFFFFFF AND DUP2 MSTORE PUSH1 0x20 ADD SWAP1 DUP2 MSTORE PUSH1 0x20 ADD PUSH0 KECCAK256 SLOAD DUP7 GT PUSH2 0x43E JUMPI PUSH1 0x40 MLOAD PUSH32 0x8C379A000000000000000000000000000000000000000000000000000000000 DUP2 MSTORE PUSH1 0x4 ADD PUSH2 0x435 SWAP1 PUSH2 0xDAA JUMP JUMPDEST PUSH1 0x40 MLOAD DUP1 SWAP2 SUB SWAP1 REVERT JUMPDEST DUP8 DUP10 DUP1 MLOAD SWAP1 PUSH1 0x20 ADD KECCAK256 EQ PUSH2 0x487 JUMPI PUSH1 0x40 MLOAD PUSH32 0x8C379A000000000000000000000000000000000000000000000000000000000 DUP2 MSTORE PUSH1 0x4 ADD PUSH2 0x47E SWAP1 PUSH2 0xE12 JUMP JUMPDEST PUSH1 0x40 MLOAD DUP1 SWAP2 SUB SWAP1 REVERT JUMPDEST PUSH0 PUSH1 0x1 PUSH0 SLOAD PUSH2 0x496 SWAP2 SWAP1 PUSH2 0xE5D JUMP JUMPDEST SWAP1 POP DUP1 PUSH0 DUP2 SWAP1 SSTORE POP PUSH1 0x40 MLOAD DUP1 PUSH2 0x160 ADD PUSH1 0x40 MSTORE DUP1 DUP3 DUP2 MSTORE PUSH1 0x20 ADD CALLER PUSH20 0xFFFFFFFFFFFFFFFFFFFFFFFFFFFFFFFFFFFFFFFF AND DUP2 MSTORE PUSH1 0x20 ADD DUP12 DUP2 MSTORE PUSH1 0x20 ADD DUP11 DUP2 MSTORE PUSH1 0x20 ADD DUP10 DUP2 MSTORE PUSH1 0x20 ADD DUP9 DUP2 MSTORE PUSH1 0x20 ADD DUP8 DUP2 MSTORE PUSH1 0x20 ADD DUP7 ISZERO ISZERO DUP2 MSTORE PUSH1 0x20 ADD DUP6 DUP2 MSTORE PUSH1 0x20 ADD DUP5 DUP2 MSTORE PUSH1 0x20 ADD DUP4 DUP2 MSTORE POP PUSH1 0x1 PUSH0 DUP4 DUP2 MSTORE PUSH1 0x20 ADD SWAP1 DUP2 MSTORE PUSH1 0x20 ADD PUSH0 KECCAK256 PUSH0 DUP3 ADD MLOAD DUP2 PUSH0 ADD SSTORE PUSH1 0x20 DUP3 ADD MLOAD DUP2 PUSH1 0x1 ADD PUSH0 PUSH2 0x100 EXP DUP2 SLOAD DUP2 PUSH20 0xFFFFFFFFFFFFFFFFFFFFFFFFFFFFFFFFFFFFFFFF MUL NOT AND SWAP1 DUP4 PUSH20 0xFFFFFFFFFFFFFFFFFFFFFFFFFFFFFFFFFFFFFFFF AND MUL OR SWAP1 SSTORE POP PUSH1 0x40 DUP3 ADD MLOAD DUP2 PUSH1 0x2 ADD SWAP1 DUP2 PUSH2 0x576 SWAP2 SWAP1 PUSH2 0x1030 JUMP JUMPDEST POP PUSH1 0x60 DUP3 ADD MLOAD DUP2 PUSH1 0x3 ADD SSTORE PUSH1 0x80 DUP3 ADD MLOAD DUP2 PUSH1 0x4 ADD SSTORE PUSH1 0xA0 DUP3 ADD MLOAD DUP2 PUSH1 0x5 ADD SSTORE PUSH1 0xC0 DUP3 ADD MLOAD DUP2 PUSH1 0x6 ADD SSTORE PUSH1 0xE0 DUP3 ADD MLOAD DUP2 PUSH1 0x7 ADD PUSH0 PUSH2 0x100 EXP DUP2 SLOAD DUP2 PUSH1 0xFF MUL NOT AND SWAP1 DUP4 ISZERO ISZERO MUL OR SWAP1 SSTORE POP PUSH2 0x100 DUP3 ADD MLOAD DUP2 PUSH1 0x8 ADD SWAP1 DUP2 PUSH2 0x5D4 SWAP2 SWAP1 PUSH2 0x1157 JUMP JUMPDEST POP PUSH2 0x120 DUP3 ADD MLOAD DUP2 PUSH1 0x9 ADD SWAP1 DUP2 PUSH2 0x5EB SWAP2 SWAP1 PUSH2 0x1157 JUMP JUMPDEST POP PUSH2 0x140 DUP3 ADD MLOAD DUP2 PUSH1 0xA ADD SWAP1 DUP2 PUSH2 0x602 SWAP2 SWAP1 PUSH2 0x1157 JUMP JUMPDEST POP SWAP1 POP POP DUP7 PUSH1 0x2 PUSH0 CALLER PUSH20 0xFFFFFFFFFFFFFFFFFFFFFFFFFFFFFFFFFFFFFFFF AND PUSH20 0xFFFFFFFFFFFFFFFFFFFFFFFFFFFFFFFFFFFFFFFF AND DUP2 MSTORE PUSH1 0x20 ADD SWAP1 DUP2 MSTORE PUSH1 0x20 ADD PUSH0 KECCAK256 DUP2 SWAP1 SSTORE POP CALLER PUSH20 0xFFFFFFFFFFFFFFFFFFFFFFFFFFFFFFFFFFFFFFFF AND DUP2 PUSH32 0x4D5E4CCFB7A9ADA5002FD91149529BCE9D9390D6FE55F36ED54D89ABF9577E63 DUP13 DUP13 DUP13 DUP13 DUP13 DUP13 DUP13 DUP13 DUP13 PUSH1 0x40 MLOAD PUSH2 0x69F SWAP10 SWAP9 SWAP8 SWAP7 SWAP6 SWAP5 SWAP4 SWAP3 SWAP2 SWAP1 PUSH2 0x1226 JUMP JUMPDEST PUSH1 0x40 MLOAD DUP1 SWAP2 SUB SWAP1 LOG3 POP POP POP POP POP POP POP POP POP POP JUMP JUMPDEST PUSH1 0x2 PUSH1 0x20 MSTORE DUP1 PUSH0 MSTORE PUSH1 0x40 PUSH0 KECCAK256 PUSH0 SWAP2 POP SWAP1 POP SLOAD DUP2 JUMP JUMPDEST PUSH0 SLOAD DUP2 JUMP JUMPDEST PUSH0 PUSH1 0x40 MLOAD SWAP1 POP SWAP1 JUMP JUMPDEST PUSH0 PUSH0 REVERT JUMPDEST PUSH0 PUSH0 REVERT JUMPDEST PUSH0 DUP2 SWAP1 POP SWAP2 SWAP1 POP JUMP JUMPDEST PUSH2 0x6F0 DUP2 PUSH2 0x6DE JUMP JUMPDEST DUP2 EQ PUSH2 0x6FA JUMPI PUSH0 PUSH0 REVERT JUMPDEST POP JUMP JUMPDEST PUSH0 DUP2 CALLDATALOAD SWAP1 POP PUSH2 0x70B DUP2 PUSH2 0x6E7 JUMP JUMPDEST SWAP3 SWAP2 POP POP JUMP JUMPDEST PUSH0 PUSH1 0x20 DUP3 DUP5 SUB SLT ISZERO PUSH2 0x726 JUMPI PUSH2 0x725 PUSH2 0x6D6 JUMP JUMPDEST JUMPDEST PUSH0 PUSH2 0x733 DUP5 DUP3 DUP6 ADD PUSH2 0x6FD JUMP JUMPDEST SWAP2 POP POP SWAP3 SWAP2 POP POP JUMP JUMPDEST PUSH2 0x745 DUP2 PUSH2 0x6DE JUMP JUMPDEST DUP3 MSTORE POP POP JUMP JUMPDEST PUSH0 PUSH20 0xFFFFFFFFFFFFFFFFFFFFFFFFFFFFFFFFFFFFFFFF DUP3 AND SWAP1 POP SWAP2 SWAP1 POP JUMP JUMPDEST PUSH0 PUSH2 0x774 DUP3 PUSH2 0x74B JUMP JUMPDEST SWAP1 POP SWAP2 SWAP1 POP JUMP JUMPDEST PUSH2 0x784 DUP2 PUSH2 0x76A JUMP JUMPDEST DUP3 MSTORE POP POP JUMP JUMPDEST PUSH0 DUP2 MLOAD SWAP1 POP SWAP2 SWAP1 POP JUMP JUMPDEST PUSH0 DUP3 DUP3 MSTORE PUSH1 0x20 DUP3 ADD SWAP1 POP SWAP3 SWAP2 POP POP JUMP JUMPDEST DUP3 DUP2 DUP4 MCOPY PUSH0 DUP4 DUP4 ADD MSTORE POP POP POP JUMP JUMPDEST PUSH0 PUSH1 0x1F NOT PUSH1 0x1F DUP4 ADD AND SWAP1 POP SWAP2 SWAP1 POP JUMP JUMPDEST PUSH0 PUSH2 0x7CC DUP3 PUSH2 0x78A JUMP JUMPDEST PUSH2 0x7D6 DUP2 DUP6 PUSH2 0x794 JUMP JUMPDEST SWAP4 POP PUSH2 0x7E6 DUP2 DUP6 PUSH1 0x20 DUP7 ADD PUSH2 0x7A4 JUMP JUMPDEST PUSH2 0x7EF DUP2 PUSH2 0x7B2 JUMP JUMPDEST DUP5 ADD SWAP2 POP POP SWAP3 SWAP2 POP POP JUMP JUMPDEST PUSH0 DUP2 SWAP1 POP SWAP2 SWAP1 POP JUMP JUMPDEST PUSH2 0x80C DUP2 PUSH2 0x7FA JUMP JUMPDEST DUP3 MSTORE POP POP JUMP JUMPDEST PUSH0 DUP2 ISZERO ISZERO SWAP1 POP SWAP2 SWAP1 POP JUMP JUMPDEST PUSH2 0x826 DUP2 PUSH2 0x812 JUMP JUMPDEST DUP3 MSTORE POP POP JUMP JUMPDEST PUSH0 DUP2 MLOAD SWAP1 POP SWAP2 SWAP1 POP JUMP JUMPDEST PUSH0 DUP3 DUP3 MSTORE PUSH1 0x20 DUP3 ADD SWAP1 POP SWAP3 SWAP2 POP POP JUMP JUMPDEST PUSH0 PUSH2 0x850 DUP3 PUSH2 0x82C JUMP JUMPDEST PUSH2 0x85A DUP2 DUP6 PUSH2 0x836 JUMP JUMPDEST SWAP4 POP PUSH2 0x86A DUP2 DUP6 PUSH1 0x20 DUP7 ADD PUSH2 0x7A4 JUMP JUMPDEST PUSH2 0x873 DUP2 PUSH2 0x7B2 JUMP JUMPDEST DUP5 ADD SWAP2 POP POP SWAP3 SWAP2 POP POP JUMP JUMPDEST PUSH0 PUSH2 0x160 DUP3 ADD SWAP1 POP PUSH2 0x892 PUSH0 DUP4 ADD DUP15 PUSH2 0x73C JUMP JUMPDEST PUSH2 0x89F PUSH1 0x20 DUP4 ADD DUP14 PUSH2 0x77B JUMP JUMPDEST DUP2 DUP2 SUB PUSH1 0x40 DUP4 ADD MSTORE PUSH2 0x8B1 DUP2 DUP13 PUSH2 0x7C2 JUMP JUMPDEST SWAP1 POP PUSH2 0x8C0 PUSH1 0x60 DUP4 ADD DUP12 PUSH2 0x803 JUMP JUMPDEST PUSH2 0x8CD PUSH1 0x80 DUP4 ADD DUP11 PUSH2 0x803 JUMP JUMPDEST PUSH2 0x8DA PUSH1 0xA0 DUP4 ADD DUP10 PUSH2 0x73C JUMP JUMPDEST PUSH2 0x8E7 PUSH1 0xC0 DUP4 ADD DUP9 PUSH2 0x73C JUMP JUMPDEST PUSH2 0x8F4 PUSH1 0xE0 DUP4 ADD DUP8 PUSH2 0x81D JUMP JUMPDEST DUP2 DUP2 SUB PUSH2 0x100 DUP4 ADD MSTORE PUSH2 0x907 DUP2 DUP7 PUSH2 0x846 JUMP JUMPDEST SWAP1 POP DUP2 DUP2 SUB PUSH2 0x120 DUP4 ADD MSTORE PUSH2 0x91C DUP2 DUP6 PUSH2 0x846 JUMP JUMPDEST SWAP1 POP DUP2 DUP2 SUB PUSH2 0x140 DUP4 ADD MSTORE PUSH2 0x931 DUP2 DUP5 PUSH2 0x846 JUMP JUMPDEST SWAP1 POP SWAP13 SWAP12 POP POP POP POP POP POP POP POP POP POP POP POP JUMP JUMPDEST PUSH0 PUSH0 REVERT JUMPDEST PUSH0 PUSH0 REVERT JUMPDEST PUSH32 0x4E487B7100000000000000000000000000000000000000000000000000000000 PUSH0 MSTORE PUSH1 0x41 PUSH1 0x4 MSTORE PUSH1 0x24 PUSH0 REVERT JUMPDEST PUSH2 0x981 DUP3 PUSH2 0x7B2 JUMP JUMPDEST DUP2 ADD DUP2 DUP2 LT PUSH8 0xFFFFFFFFFFFFFFFF DUP3 GT OR ISZERO PUSH2 0x9A0 JUMPI PUSH2 0x99F PUSH2 0x94B JUMP JUMPDEST JUMPDEST DUP1 PUSH1 0x40 MSTORE POP POP POP JUMP JUMPDEST PUSH0 PUSH2 0x9B2 PUSH2 0x6CD JUMP JUMPDEST SWAP1 POP PUSH2 0x9BE DUP3 DUP3 PUSH2 0x978 JUMP JUMPDEST SWAP2 SWAP1 POP JUMP JUMPDEST PUSH0 PUSH8 0xFFFFFFFFFFFFFFFF DUP3 GT ISZERO PUSH2 0x9DD JUMPI PUSH2 0x9DC PUSH2 0x94B JUMP JUMPDEST JUMPDEST PUSH2 0x9E6 DUP3 PUSH2 0x7B2 JUMP JUMPDEST SWAP1 POP PUSH1 0x20 DUP2 ADD SWAP1 POP SWAP2 SWAP1 POP JUMP JUMPDEST DUP3 DUP2 DUP4 CALLDATACOPY PUSH0 DUP4 DUP4 ADD MSTORE POP POP POP JUMP JUMPDEST PUSH0 PUSH2 0xA13 PUSH2 0xA0E DUP5 PUSH2 0x9C3 JUMP JUMPDEST PUSH2 0x9A9 JUMP JUMPDEST SWAP1 POP DUP3 DUP2 MSTORE PUSH1 0x20 DUP2 ADD DUP5 DUP5 DUP5 ADD GT ISZERO PUSH2 0xA2F JUMPI PUSH2 0xA2E PUSH2 0x947 JUMP JUMPDEST JUMPDEST PUSH2 0xA3A DUP5 DUP3 DUP6 PUSH2 0x9F3 JUMP JUMPDEST POP SWAP4 SWAP3 POP POP POP JUMP JUMPDEST PUSH0 DUP3 PUSH1 0x1F DUP4 ADD SLT PUSH2 0xA56 JUMPI PUSH2 0xA55 PUSH2 0x943 JUMP JUMPDEST JUMPDEST DUP2 CALLDATALOAD PUSH2 0xA66 DUP5 DUP3 PUSH1 0x20 DUP7 ADD PUSH2 0xA01 JUMP JUMPDEST SWAP2 POP POP SWAP3 SWAP2 POP POP JUMP JUMPDEST PUSH2 0xA78 DUP2 PUSH2 0x7FA JUMP JUMPDEST DUP2 EQ PUSH2 0xA82 JUMPI PUSH0 PUSH0 REVERT JUMPDEST POP JUMP JUMPDEST PUSH0 DUP2 CALLDATALOAD SWAP1 POP PUSH2 0xA93 DUP2 PUSH2 0xA6F JUMP JUMPDEST SWAP3 SWAP2 POP POP JUMP JUMPDEST PUSH2 0xAA2 DUP2 PUSH2 0x812 JUMP JUMPDEST DUP2 EQ PUSH2 0xAAC JUMPI PUSH0 PUSH0 REVERT JUMPDEST POP JUMP JUMPDEST PUSH0 DUP2 CALLDATALOAD SWAP1 POP PUSH2 0xABD DUP2 PUSH2 0xA99 JUMP JUMPDEST SWAP3 SWAP2 POP POP JUMP JUMPDEST PUSH0 PUSH8 0xFFFFFFFFFFFFFFFF DUP3 GT ISZERO PUSH2 0xADD JUMPI PUSH2 0xADC PUSH2 0x94B JUMP JUMPDEST JUMPDEST PUSH2 0xAE6 DUP3 PUSH2 0x7B2 JUMP JUMPDEST SWAP1 POP PUSH1 0x20 DUP2 ADD SWAP1 POP SWAP2 SWAP1 POP JUMP JUMPDEST PUSH0 PUSH2 0xB05 PUSH2 0xB00 DUP5 PUSH2 0xAC3 JUMP JUMPDEST PUSH2 0x9A9 JUMP JUMPDEST SWAP1 POP DUP3 DUP2 MSTORE PUSH1 0x20 DUP2 ADD DUP5 DUP5 DUP5 ADD GT ISZERO PUSH2 0xB21 JUMPI PUSH2 0xB20 PUSH2 0x947 JUMP JUMPDEST JUMPDEST PUSH2 0xB2C DUP5 DUP3 DUP6 PUSH2 0x9F3 JUMP JUMPDEST POP SWAP4 SWAP3 POP POP POP JUMP JUMPDEST PUSH0 DUP3 PUSH1 0x1F DUP4 ADD SLT PUSH2 0xB48 JUMPI PUSH2 0xB47 PUSH2 0x943 JUMP JUMPDEST JUMPDEST DUP2 CALLDATALOAD PUSH2 0xB58 DUP5 DUP3 PUSH1 0x20 DUP7 ADD PUSH2 0xAF3 JUMP JUMPDEST SWAP2 POP POP SWAP3 SWAP2 POP POP JUMP JUMPDEST PUSH0 PUSH0 PUSH0 PUSH0 PUSH0 PUSH0 PUSH0 PUSH0 PUSH0 PUSH2 0x120 DUP11 DUP13 SUB SLT ISZERO PUSH2 0xB7F JUMPI PUSH2 0xB7E PUSH2 0x6D6 JUMP JUMPDEST JUMPDEST PUSH0 DUP11 ADD CALLDATALOAD PUSH8 0xFFFFFFFFFFFFFFFF DUP2 GT ISZERO PUSH2 0xB9C JUMPI PUSH2 0xB9B PUSH2 0x6DA JUMP JUMPDEST JUMPDEST PUSH2 0xBA8 DUP13 DUP3 DUP14 ADD PUSH2 0xA42 JUMP JUMPDEST SWAP10 POP POP PUSH1 0x20 PUSH2 0xBB9 DUP13 DUP3 DUP14 ADD PUSH2 0xA85 JUMP JUMPDEST SWAP9 POP POP PUSH1 0x40 PUSH2 0xBCA DUP13 DUP3 DUP14 ADD PUSH2 0xA85 JUMP JUMPDEST SWAP8 POP POP PUSH1 0x60 PUSH2 0xBDB DUP13 DUP3 DUP14 ADD PUSH2 0x6FD JUMP JUMPDEST SWAP7 POP POP PUSH1 0x80 PUSH2 0xBEC DUP13 DUP3 DUP14 ADD PUSH2 0x6FD JUMP JUMPDEST SWAP6 POP POP PUSH1 0xA0 PUSH2 0xBFD DUP13 DUP3 DUP14 ADD PUSH2 0xAAF JUMP JUMPDEST SWAP5 POP POP PUSH1 0xC0 DUP11 ADD CALLDATALOAD PUSH8 0xFFFFFFFFFFFFFFFF DUP2 GT ISZERO PUSH2 0xC1E JUMPI PUSH2 0xC1D PUSH2 0x6DA JUMP JUMPDEST JUMPDEST PUSH2 0xC2A DUP13 DUP3 DUP14 ADD PUSH2 0xB34 JUMP JUMPDEST SWAP4 POP POP PUSH1 0xE0 DUP11 ADD CALLDATALOAD PUSH8 0xFFFFFFFFFFFFFFFF DUP2 GT ISZERO PUSH2 0xC4B JUMPI PUSH2 0xC4A PUSH2 0x6DA JUMP JUMPDEST JUMPDEST PUSH2 0xC57 DUP13 DUP3 DUP14 ADD PUSH2 0xB34 JUMP JUMPDEST SWAP3 POP POP PUSH2 0x100 DUP11 ADD CALLDATALOAD PUSH8 0xFFFFFFFFFFFFFFFF DUP2 GT ISZERO PUSH2 0xC79 JUMPI PUSH2 0xC78 PUSH2 0x6DA JUMP JUMPDEST JUMPDEST PUSH2 0xC85 DUP13 DUP3 DUP14 ADD PUSH2 0xB34 JUMP JUMPDEST SWAP2 POP POP SWAP3 SWAP6 SWAP9 POP SWAP3 SWAP6 SWAP9 POP SWAP3 SWAP6 SWAP9 JUMP JUMPDEST PUSH2 0xC9E DUP2 PUSH2 0x76A JUMP JUMPDEST DUP2 EQ PUSH2 0xCA8 JUMPI PUSH0 PUSH0 REVERT JUMPDEST POP JUMP JUMPDEST PUSH0 DUP2 CALLDATALOAD SWAP1 POP PUSH2 0xCB9 DUP2 PUSH2 0xC95 JUMP JUMPDEST SWAP3 SWAP2 POP POP JUMP JUMPDEST PUSH0 PUSH1 0x20 DUP3 DUP5 SUB SLT ISZERO PUSH2 0xCD4 JUMPI PUSH2 0xCD3 PUSH2 0x6D6 JUMP JUMPDEST JUMPDEST PUSH0 PUSH2 0xCE1 DUP5 DUP3 DUP6 ADD PUSH2 0xCAB JUMP JUMPDEST SWAP2 POP POP SWAP3 SWAP2 POP POP JUMP JUMPDEST PUSH0 PUSH1 0x20 DUP3 ADD SWAP1 POP PUSH2 0xCFD PUSH0 DUP4 ADD DUP5 PUSH2 0x73C JUMP JUMPDEST SWAP3 SWAP2 POP POP JUMP JUMPDEST PUSH32 0x4E487B7100000000000000000000000000000000000000000000000000000000 PUSH0 MSTORE PUSH1 0x22 PUSH1 0x4 MSTORE PUSH1 0x24 PUSH0 REVERT JUMPDEST PUSH0 PUSH1 0x2 DUP3 DIV SWAP1 POP PUSH1 0x1 DUP3 AND DUP1 PUSH2 0xD47 JUMPI PUSH1 0x7F DUP3 AND SWAP2 POP JUMPDEST PUSH1 0x20 DUP3 LT DUP2 SUB PUSH2 0xD5A JUMPI PUSH2 0xD59 PUSH2 0xD03 JUMP JUMPDEST JUMPDEST POP SWAP2 SWAP1 POP JUMP JUMPDEST PUSH32 0x7374616C65206E6F6E6365000000000000000000000000000000000000000000 PUSH0 DUP3 ADD MSTORE POP JUMP JUMPDEST PUSH0 PUSH2 0xD94 PUSH1 0xB DUP4 PUSH2 0x836 JUMP JUMPDEST SWAP2 POP PUSH2 0xD9F DUP3 PUSH2 0xD60 JUMP JUMPDEST PUSH1 0x20 DUP3 ADD SWAP1 POP SWAP2 SWAP1 POP JUMP JUMPDEST PUSH0 PUSH1 0x20 DUP3 ADD SWAP1 POP DUP2 DUP2 SUB PUSH0 DUP4 ADD MSTORE PUSH2 0xDC1 DUP2 PUSH2 0xD88 JUMP JUMPDEST SWAP1 POP SWAP2 SWAP1 POP JUMP JUMPDEST PUSH32 0x7061796C6F61642068617368206D69736D617463680000000000000000000000 PUSH0 DUP3 ADD MSTORE POP JUMP JUMPDEST PUSH0 PUSH2 0xDFC PUSH1 0x15 DUP4 PUSH2 0x836 JUMP JUMPDEST SWAP2 POP PUSH2 0xE07 DUP3 PUSH2 0xDC8 JUMP JUMPDEST PUSH1 0x20 DUP3 ADD SWAP1 POP SWAP2 SWAP1 POP JUMP JUMPDEST PUSH0 PUSH1 0x20 DUP3 ADD SWAP1 POP DUP2 DUP2 SUB PUSH0 DUP4 ADD MSTORE PUSH2 0xE29 DUP2 PUSH2 0xDF0 JUMP JUMPDEST SWAP1 POP SWAP2 SWAP1 POP JUMP JUMPDEST PUSH32 0x4E487B7100000000000000000000000000000000000000000000000000000000 PUSH0 MSTORE PUSH1 0x11 PUSH1 0x4 MSTORE PUSH1 0x24 PUSH0 REVERT JUMPDEST PUSH0 PUSH2 0xE67 DUP3 PUSH2 0x6DE JUMP JUMPDEST SWAP2 POP PUSH2 0xE72 DUP4 PUSH2 0x6DE JUMP JUMPDEST SWAP3 POP DUP3 DUP3 ADD SWAP1 POP DUP1 DUP3 GT ISZERO PUSH2 0xE8A JUMPI PUSH2 0xE89 PUSH2 0xE30 JUMP JUMPDEST JUMPDEST SWAP3 SWAP2 POP POP JUMP JUMPDEST PUSH0 DUP2 SWAP1 POP DUP2 PUSH0 MSTORE PUSH1 0x20 PUSH0 KECCAK256 SWAP1 POP SWAP2 SWAP1 POP JUMP JUMPDEST PUSH0 PUSH1 0x20 PUSH1 0x1F DUP4 ADD DIV SWAP1 POP SWAP2 SWAP1 POP JUMP JUMPDEST PUSH0 DUP3 DUP3 SHL SWAP1 POP SWAP3 SWAP2 POP POP JUMP JUMPDEST PUSH0 PUSH1 0x8 DUP4 MUL PUSH2 0xEEC PUSH32 0xFFFFFFFFFFFFFFFFFFFFFFFFFFFFFFFFFFFFFFFFFFFFFFFFFFFFFFFFFFFFFFFF DUP3 PUSH2 0xEB1 JUMP JUMPDEST PUSH2 0xEF6 DUP7 DUP4 PUSH2 0xEB1 JUMP JUMPDEST SWAP6 POP DUP1 NOT DUP5 AND SWAP4 POP DUP1 DUP7 AND DUP5 OR SWAP3 POP POP POP SWAP4 SWAP3 POP POP POP JUMP JUMPDEST PUSH0 DUP2 SWAP1 POP SWAP2 SWAP1 POP JUMP JUMPDEST PUSH0 PUSH2 0xF31 PUSH2 0xF2C PUSH2 0xF27 DUP5 PUSH2 0x6DE JUMP JUMPDEST PUSH2 0xF0E JUMP JUMPDEST PUSH2 0x6DE JUMP JUMPDEST SWAP1 POP SWAP2 SWAP1 POP JUMP JUMPDEST PUSH0 DUP2 SWAP1 POP SWAP2 SWAP1 POP JUMP JUMPDEST PUSH2 0xF4A DUP4 PUSH2 0xF17 JUMP JUMPDEST PUSH2 0xF5E PUSH2 0xF56 DUP3 PUSH2 0xF38 JUMP JUMPDEST DUP5 DUP5 SLOAD PUSH2 0xEBD JUMP JUMPDEST DUP3 SSTORE POP POP POP POP JUMP JUMPDEST PUSH0 PUSH0 SWAP1 POP SWAP1 JUMP JUMPDEST PUSH2 0xF75 PUSH2 0xF66 JUMP JUMPDEST PUSH2 0xF80 DUP2 DUP5 DUP5 PUSH2 0xF41 JUMP JUMPDEST POP POP POP JUMP JUMPDEST JUMPDEST DUP2 DUP2 LT ISZERO PUSH2 0xFA3 JUMPI PUSH2 0xF98 PUSH0 DUP3 PUSH2 0xF6D JUMP JUMPDEST PUSH1 0x1 DUP2 ADD SWAP1 POP PUSH2 0xF86 JUMP JUMPDEST POP POP JUMP JUMPDEST PUSH1 0x1F DUP3 GT ISZERO PUSH2 0xFE8 JUMPI PUSH2 0xFB9 DUP2 PUSH2 0xE90 JUMP JUMPDEST PUSH2 0xFC2 DUP5 PUSH2 0xEA2 JUMP JUMPDEST DUP2 ADD PUSH1 0x20 DUP6 LT ISZERO PUSH2 0xFD1 JUMPI DUP2 SWAP1 POP JUMPDEST PUSH2 0xFE5 PUSH2 0xFDD DUP6 PUSH2 0xEA2 JUMP JUMPDEST DUP4 ADD DUP3 PUSH2 0xF85 JUMP JUMPDEST POP POP JUMPDEST POP POP POP JUMP JUMPDEST PUSH0 DUP3 DUP3 SHR SWAP1 POP SWAP3 SWAP2 POP POP JUMP JUMPDEST PUSH0 PUSH2 0x1008 PUSH0 NOT DUP5 PUSH1 0x8 MUL PUSH2 0xFED JUMP JUMPDEST NOT DUP1 DUP4 AND SWAP2 POP POP SWAP3 SWAP2 POP POP JUMP JUMPDEST PUSH0 PUSH2 0x1020 DUP4 DUP4 PUSH2 0xFF9 JUMP JUMPDEST SWAP2 POP DUP3 PUSH1 0x2 MUL DUP3 OR SWAP1 POP SWAP3 SWAP2 POP POP JUMP JUMPDEST PUSH2 0x1039 DUP3 PUSH2 0x78A JUMP JUMPDEST PUSH8 0xFFFFFFFFFFFFFFFF DUP2 GT ISZERO PUSH2 0x1052 JUMPI PUSH2 0x1051 PUSH2 0x94B JUMP JUMPDEST JUMPDEST PUSH2 0x105C DUP3 SLOAD PUSH2 0xD30 JUMP JUMPDEST PUSH2 0x1067 DUP3 DUP3 DUP6 PUSH2 0xFA7 JUMP JUMPDEST PUSH0 PUSH1 0x20 SWAP1 POP PUSH1 0x1F DUP4 GT PUSH1 0x1 DUP2 EQ PUSH2 0x1098 JUMPI PUSH0 DUP5 ISZERO PUSH2 0x1086 JUMPI DUP3 DUP8 ADD MLOAD SWAP1 POP JUMPDEST PUSH2 0x1090 DUP6 DUP3 PUSH2 0x1015 JUMP JUMPDEST DUP7 SSTORE POP PUSH2 0x10F7 JUMP JUMPDEST PUSH1 0x1F NOT DUP5 AND PUSH2 0x10A6 DUP7 PUSH2 0xE90 JUMP JUMPDEST PUSH0 JUMPDEST DUP3 DUP2 LT ISZERO PUSH2 0x10CD JUMPI DUP5 DUP10 ADD MLOAD DUP3 SSTORE PUSH1 0x1 DUP3 ADD SWAP2 POP PUSH1 0x20 DUP6 ADD SWAP5 POP PUSH1 0x20 DUP2 ADD SWAP1 POP PUSH2 0x10A8 JUMP JUMPDEST DUP7 DUP4 LT ISZERO PUSH2 0x10EA JUMPI DUP5 DUP10 ADD MLOAD PUSH2 0x10E6 PUSH1 0x1F DUP10 AND DUP3 PUSH2 0xFF9 JUMP JUMPDEST DUP4 SSTORE POP JUMPDEST PUSH1 0x1 PUSH1 0x2 DUP9 MUL ADD DUP9 SSTORE POP POP POP JUMPDEST POP POP POP POP POP POP JUMP JUMPDEST PUSH0 DUP2 SWAP1 POP DUP2 PUSH0 MSTORE PUSH1 0x20 PUSH0 KECCAK256 SWAP1 POP SWAP2 SWAP1 POP JUMP JUMPDEST PUSH1 0x1F DUP3 GT ISZERO PUSH2 0x1152 JUMPI PUSH2 0x1123 DUP2 PUSH2 0x10FF JUMP JUMPDEST PUSH2 0x112C DUP5 PUSH2 0xEA2 JUMP JUMPDEST DUP2 ADD PUSH1 0x20 DUP6 LT ISZERO PUSH2 0x113B JUMPI DUP2 SWAP1 POP JUMPDEST PUSH2 0x114F PUSH2 0x1147 DUP6 PUSH2 0xEA2 JUMP JUMPDEST DUP4 ADD DUP3 PUSH2 0xF85 JUMP JUMPDEST POP POP JUMPDEST POP POP POP JUMP JUMPDEST PUSH2 0x1160 DUP3 PUSH2 0x82C JUMP JUMPDEST PUSH8 0xFFFFFFFFFFFFFFFF DUP2 GT ISZERO PUSH2 0x1179 JUMPI PUSH2 0x1178 PUSH2 0x94B JUMP JUMPDEST JUMPDEST PUSH2 0x1183 DUP3 SLOAD PUSH2 0xD30 JUMP JUMPDEST PUSH2 0x118E DUP3 DUP3 DUP6 PUSH2 0x1111 JUMP JUMPDEST PUSH0 PUSH1 0x20 SWAP1 POP PUSH1 0x1F DUP4 GT PUSH1 0x1 DUP2 EQ PUSH2 0x11BF JUMPI PUSH0 DUP5 ISZERO PUSH2 0x11AD JUMPI DUP3 DUP8 ADD MLOAD SWAP1 POP JUMPDEST PUSH2 0x11B7 DUP6 DUP3 PUSH2 0x1015 JUMP JUMPDEST DUP7 SSTORE POP PUSH2 0x121E JUMP JUMPDEST PUSH1 0x1F NOT DUP5 AND PUSH2 0x11CD DUP7 PUSH2 0x10FF JUMP JUMPDEST PUSH0 JUMPDEST DUP3 DUP2 LT ISZERO PUSH2 0x11F4 JUMPI DUP5 DUP10 ADD MLOAD DUP3 SSTORE PUSH1 0x1 DUP3 ADD SWAP2 POP PUSH1 0x20 DUP6 ADD SWAP5 POP PUSH1 0x20 DUP2 ADD SWAP1 POP PUSH2 0x11CF JUMP JUMPDEST DUP7 DUP4 LT ISZERO PUSH2 0x1211 JUMPI DUP5 DUP10 ADD MLOAD PUSH2 0x120D PUSH1 0x1F DUP10 AND DUP3 PUSH2 0xFF9 JUMP JUMPDEST DUP4 SSTORE POP JUMPDEST PUSH1 0x1 PUSH1 0x2 DUP9 MUL ADD DUP9 SSTORE POP POP POP JUMPDEST POP POP POP POP POP POP JUMP JUMPDEST PUSH0 PUSH2 0x120 DUP3 ADD SWAP1 POP DUP2 DUP2 SUB PUSH0 DUP4 ADD MSTORE PUSH2 0x123F DUP2 DUP13 PUSH2 0x7C2 JUMP JUMPDEST SWAP1 POP PUSH2 0x124E PUSH1 0x20 DUP4 ADD DUP12 PUSH2 0x803 JUMP JUMPDEST PUSH2 0x125B PUSH1 0x40 DUP4 ADD DUP11 PUSH2 0x803 JUMP JUMPDEST PUSH2 0x1268 PUSH1 0x60 DUP4 ADD DUP10 PUSH2 0x73C JUMP JUMPDEST PUSH2 0x1275 PUSH1 0x80 DUP4 ADD DUP9 PUSH2 0x73C JUMP JUMPDEST PUSH2 0x1282 PUSH1 0xA0 DUP4 ADD DUP8 PUSH2 0x81D JUMP JUMPDEST DUP2 DUP2 SUB PUSH1 0xC0 DUP4 ADD MSTORE PUSH2 0x1294 DUP2 DUP7 PUSH2 0x846 JUMP JUMPDEST SWAP1 POP DUP2 DUP2 SUB PUSH1 0xE0 DUP4 ADD MSTORE PUSH2 0x12A8 DUP2 DUP6 PUSH2 0x846 JUMP JUMPDEST SWAP1 POP DUP2 DUP2 SUB PUSH2 0x100 DUP4 ADD MSTORE PUSH2 0x12BD DUP2 DUP5 PUSH2 0x846 JUMP JUMPDEST SWAP1 POP SWAP11 SWAP10 POP POP POP POP POP POP POP POP POP POP JUMP INVALID LOG2 PUSH5 0x6970667358 0x22 SLT KECCAK256 PC 0xDF SSTORE EXTCODECOPY PUSH23 0xAD6554E3AE8D1967B264ECB5B5B2C71EECCAE518D60FF5 SWAP2 GT BLOBHASH PUSH23 0x64736F6C634300081E0033000000000000000000000000 "
				},
				"gasEstimates": {
					"creation": {
						"codeDepositCost": "973400",
						"executionCost": "1012",
						"totalCost": "974412"
					},
					"external": {
						"getRecord(uint256)": "infinite",
						"lastNonceBySender(address)": "2824",
						"lastRecordId()": "2468",
						"storeRecord(bytes,bytes32,bytes32,uint256,uint256,bool,string,string,string)": "infinite"
					}
				},
				"methodIdentifiers": {
					"getRecord(uint256)": "03e9e609",
					"lastNonceBySender(address)": "55438bf6",
					"lastRecordId()": "fea68189",
					"storeRecord(bytes,bytes32,bytes32,uint256,uint256,bool,string,string,string)": "27505bd2"
				}
			},
			"storageLayout": {
				"storage": [
					{
						"astId": 26,
						"contract": "Demo.sol:Demo",
						"label": "lastRecordId",
						"offset": 0,
						"slot": "0",
						"type": "t_uint256"
					},
					{
						"astId": 31,
						"contract": "Demo.sol:Demo",
						"label": "records",
						"offset": 0,
						"slot": "1",
						"type": "t_mapping(t_uint256,t_struct(Record)24_storage)"
					},
					{
						"astId": 35,
						"contract": "Demo.sol:Demo",
						"label": "lastNonceBySender",
						"offset": 0,
						"slot": "2",
						"type": "t_mapping(t_address,t_uint256)"
					}
				],
				"types": {
					"t_address": {
						"encoding": "inplace",
						"label": "address",
						"numberOfBytes": "20"
					},
					"t_bool": {
						"encoding": "inplace",
						"label": "bool",
						"numberOfBytes": "1"
					},
					"t_bytes32": {
						"encoding": "inplace",
						"label": "bytes32",
						"numberOfBytes": "32"
					},
					"t_bytes_storage": {
						"encoding": "bytes",
						"label": "bytes",
						"numberOfBytes": "32"
					},
					"t_mapping(t_address,t_uint256)": {
						"encoding": "mapping",
						"key": "t_address",
						"label": "mapping(address => uint256)",
						"numberOfBytes": "32",
						"value": "t_uint256"
					},
					"t_mapping(t_uint256,t_struct(Record)24_storage)": {
						"encoding": "mapping",
						"key": "t_uint256",
						"label": "mapping(uint256 => struct Demo.Record)",
						"numberOfBytes": "32",
						"value": "t_struct(Record)24_storage"
					},
					"t_string_storage": {
						"encoding": "bytes",
						"label": "string",
						"numberOfBytes": "32"
					},
					"t_struct(Record)24_storage": {
						"encoding": "inplace",
						"label": "struct Demo.Record",
						"members": [
							{
								"astId": 3,
								"contract": "Demo.sol:Demo",
								"label": "recordId",
								"offset": 0,
								"slot": "0",
								"type": "t_uint256"
							},
							{
								"astId": 5,
								"contract": "Demo.sol:Demo",
								"label": "owner",
								"offset": 0,
								"slot": "1",
								"type": "t_address"
							},
							{
								"astId": 7,
								"contract": "Demo.sol:Demo",
								"label": "payload",
								"offset": 0,
								"slot": "2",
								"type": "t_bytes_storage"
							},
							{
								"astId": 9,
								"contract": "Demo.sol:Demo",
								"label": "payloadHash",
								"offset": 0,
								"slot": "3",
								"type": "t_bytes32"
							},
							{
								"astId": 11,
								"contract": "Demo.sol:Demo",
								"label": "pqcProofHash",
								"offset": 0,
								"slot": "4",
								"type": "t_bytes32"
							},
							{
								"astId": 13,
								"contract": "Demo.sol:Demo",
								"label": "appNonce",
								"offset": 0,
								"slot": "5",
								"type": "t_uint256"
							},
							{
								"astId": 15,
								"contract": "Demo.sol:Demo",
								"label": "timestamp",
								"offset": 0,
								"slot": "6",
								"type": "t_uint256"
							},
							{
								"astId": 17,
								"contract": "Demo.sol:Demo",
								"label": "encrypted",
								"offset": 0,
								"slot": "7",
								"type": "t_bool"
							},
							{
								"astId": 19,
								"contract": "Demo.sol:Demo",
								"label": "mode",
								"offset": 0,
								"slot": "8",
								"type": "t_string_storage"
							},
							{
								"astId": 21,
								"contract": "Demo.sol:Demo",
								"label": "ipfsCid",
								"offset": 0,
								"slot": "9",
								"type": "t_string_storage"
							},
							{
								"astId": 23,
								"contract": "Demo.sol:Demo",
								"label": "algorithm",
								"offset": 0,
								"slot": "10",
								"type": "t_string_storage"
							}
						],
						"numberOfBytes": "352"
					},
					"t_uint256": {
						"encoding": "inplace",
						"label": "uint256",
						"numberOfBytes": "32"
					}
				}
			},
			"userdoc": {
				"kind": "user",
				"methods": {},
				"version": 1
			}
		}
	}
}